{
  "contractName": "AdminHandler",
  "abi": [
    {
      "inputs": [],
      "payable": false,
      "stateMutability": "nonpayable",
      "type": "constructor"
    },
    {
      "constant": false,
      "inputs": [
        {
          "name": "bankName",
          "type": "string"
        },
        {
          "name": "regNumber",
          "type": "string"
        },
        {
          "name": "ethAddress",
          "type": "address"
        }
      ],
      "name": "addBank",
      "outputs": [
        {
          "name": "",
          "type": "uint8"
        }
      ],
      "payable": false,
      "stateMutability": "nonpayable",
      "type": "function"
    },
    {
      "constant": false,
      "inputs": [
        {
          "name": "bankAddress",
          "type": "address"
        }
      ],
      "name": "removeBank",
      "outputs": [
        {
          "name": "",
          "type": "uint8"
        }
      ],
      "payable": false,
      "stateMutability": "nonpayable",
      "type": "function"
    }
  ],
  "bytecode": "0x608060405234801561001057600080fd5b50610ae5806100206000396000f3fe608060405234801561001057600080fd5b5060043610610053576000357c01000000000000000000000000000000000000000000000000000000009004806347f88689146100585780639649650c146101e4575b600080fd5b6101c86004803603606081101561006e57600080fd5b810190808035906020019064010000000081111561008b57600080fd5b82018360208201111561009d57600080fd5b803590602001918460018302840111640100000000831117156100bf57600080fd5b91908080601f016020809104026020016040519081016040528093929190818152602001838380828437600081840152601f19601f8201169050808301925050505050505091929192908035906020019064010000000081111561012257600080fd5b82018360208201111561013457600080fd5b8035906020019184600183028401116401000000008311171561015657600080fd5b91908080601f016020809104026020016040519081016040528093929190818152602001838380828437600081840152601f19601f820116905080830192505050505050509192919290803573ffffffffffffffffffffffffffffffffffffffff169060200190929190505050610242565b604051808260ff1660ff16815260200191505060405180910390f35b610226600480360360208110156101fa57600080fd5b81019080803573ffffffffffffffffffffffffffffffffffffffff16906020019092919050505061061d565b604051808260ff1660ff16815260200191505060405180910390f35b60008060009054906101000a900473ffffffffffffffffffffffffffffffffffffffff1673ffffffffffffffffffffffffffffffffffffffff163373ffffffffffffffffffffffffffffffffffffffff16146102e9576040517f08c379a000000000000000000000000000000000000000000000000000000000815260040180806020018281038252602d815260200180610a84602d913960400191505060405180910390fd5b600073ffffffffffffffffffffffffffffffffffffffff16600360008473ffffffffffffffffffffffffffffffffffffffff1673ffffffffffffffffffffffffffffffffffffffff16815260200190815260200160002060000160009054906101000a900473ffffffffffffffffffffffffffffffffffffffff1673ffffffffffffffffffffffffffffffffffffffff16146103ed576040517f08c379a00000000000000000000000000000000000000000000000000000000081526004018080602001828103825260208152602001807f546869732042616e6b20697320616c726561647920726567697374657265642e81525060200191505060405180910390fd5b83600360008473ffffffffffffffffffffffffffffffffffffffff1673ffffffffffffffffffffffffffffffffffffffff168152602001908152602001600020600101908051906020019061044392919061096a565b5081600360008473ffffffffffffffffffffffffffffffffffffffff1673ffffffffffffffffffffffffffffffffffffffff16815260200190815260200160002060000160006101000a81548173ffffffffffffffffffffffffffffffffffffffff021916908373ffffffffffffffffffffffffffffffffffffffff16021790555082600360008473ffffffffffffffffffffffffffffffffffffffff1673ffffffffffffffffffffffffffffffffffffffff168152602001908152602001600020600201908051906020019061051b92919061096a565b506000600360008473ffffffffffffffffffffffffffffffffffffffff1673ffffffffffffffffffffffffffffffffffffffff168152602001908152602001600020600301819055506000600360008473ffffffffffffffffffffffffffffffffffffffff1673ffffffffffffffffffffffffffffffffffffffff1681526020019081526020016000206004018190555060048290806001815401808255809150509060018203906000526020600020016000909192909190916101000a81548173ffffffffffffffffffffffffffffffffffffffff021916908373ffffffffffffffffffffffffffffffffffffffff16021790555050600190509392505050565b60008060009054906101000a900473ffffffffffffffffffffffffffffffffffffffff1673ffffffffffffffffffffffffffffffffffffffff163373ffffffffffffffffffffffffffffffffffffffff16146106c4576040517f08c379a000000000000000000000000000000000000000000000000000000000815260040180806020018281038252602d815260200180610a84602d913960400191505060405180910390fd5b600073ffffffffffffffffffffffffffffffffffffffff16600360008473ffffffffffffffffffffffffffffffffffffffff1673ffffffffffffffffffffffffffffffffffffffff16815260200190815260200160002060000160009054906101000a900473ffffffffffffffffffffffffffffffffffffffff1673ffffffffffffffffffffffffffffffffffffffff1614156107c9576040517f08c379a000000000000000000000000000000000000000000000000000000000815260040180806020018281038252601c8152602001807f546869732042616e6b206973206e6f7420726567697374657265642e0000000081525060200191505060405180910390fd5b600360008373ffffffffffffffffffffffffffffffffffffffff1673ffffffffffffffffffffffffffffffffffffffff168152602001908152602001600020600080820160006101000a81549073ffffffffffffffffffffffffffffffffffffffff021916905560018201600061084091906109ea565b60028201600061085091906109ea565b600382016000905560048201600090556005820160006101000a81549060ff0219169055505060008090505b60048054905081101561094a5760006001820190505b60048054905081101561093c57600481815481106108ac57fe5b9060005260206000200160009054906101000a900473ffffffffffffffffffffffffffffffffffffffff16600460018303815481106108e757fe5b9060005260206000200160006101000a81548173ffffffffffffffffffffffffffffffffffffffff021916908373ffffffffffffffffffffffffffffffffffffffff1602179055508080600101915050610892565b50808060010191505061087c565b5060048054809190600190036109609190610a32565b5060019050919050565b828054600181600116156101000203166002900490600052602060002090601f016020900481019282601f106109ab57805160ff19168380011785556109d9565b828001600101855582156109d9579182015b828111156109d85782518255916020019190600101906109bd565b5b5090506109e69190610a5e565b5090565b50805460018160011615610100020316600290046000825580601f10610a105750610a2f565b601f016020900490600052602060002090810190610a2e9190610a5e565b5b50565b815481835581811115610a5957818360005260206000209182019101610a589190610a5e565b5b505050565b610a8091905b80821115610a7c576000816000905550600101610a64565b5090565b9056fe596f7520646f206e6f742068617665207065726d7373696f6e20746f2063616c6c2074686973206d6574686f64a265627a7a72305820990aada885464c28c27f3d1e65431a9d2eed4bc4050c4c60460798956f918d4064736f6c63430005090032",
  "source": "pragma solidity ^0.5.9;\r\nimport \"./Types.sol\";\r\nimport \"./DataStorage.sol\";\r\nimport \"./Helpers.sol\";\r\nimport \"./AccessControl.sol\";\r\n\r\ncontract AdminHandler is Types,DataStorage,Helpers,AccessControl{\r\n    constructor() public{\r\n    }\r\n    /**\r\n     * Adds bank to banks mapping and bank's address to bankAddresses list\r\n     * @param {string} bankName Name of the bankName\r\n     * @param {string} regNumber resgistration number of the bankName\r\n     * @param {address} ethAddress address of the bank\r\n     */\r\n    function addBank(string memory bankName, string memory regNumber, address  ethAddress) public onlyAdmin returns(uint8) {\r\n        require(banks[ethAddress].ethAddress == address(0), \"This Bank is already registered.\");\r\n        banks[ethAddress].bankName =  bankName;\r\n        banks[ethAddress].ethAddress = ethAddress;\r\n        banks[ethAddress].regNumber = regNumber;\r\n        banks[ethAddress].KYC_count = 0;\r\n        banks[ethAddress].rating = 0;\r\n        bankAddresses.push(ethAddress);\r\n        return 1;\r\n    }\r\n    \r\n     /**\r\n     * Removes bank from banks mapping and remove bank's address to bankAddresses list\r\n     * @param {string} bankName Name of the bankName\r\n     * @return {uint8} flag if removal is succesful\r\n     */\r\n    function removeBank(address bankAddress) public onlyAdmin returns(uint8){\r\n        require(banks[bankAddress].ethAddress != address(0), \"This Bank is not registered.\");\r\n        delete banks[bankAddress];\r\n        for(uint i=0;i < bankAddresses.length;i++)\r\n        {\r\n         for(uint j = i+1;j < bankAddresses.length;j++)\r\n            {\r\n                bankAddresses[j-1] = bankAddresses[j];\r\n            }\r\n        }\r\n        bankAddresses.length--;\r\n        return 1;\r\n    }\r\n}\r\n",
  "sourcePath": "C:\\Users\\HP\\Documents\\Fiddle\\KYC_Eth\\contracts\\AdminHandler.sol",
  "compiler": {
    "name": "solc",
    "version": "0.5.9+commit.e560f70d.Emscripten.clang"
  },
  "schemaVersion": "3.0.20",
  "updatedAt": "2020-01-06T18:21:04.807Z",
  "devdoc": {
    "methods": {
      "addBank(string,string,address)": {
        "params": {
          "": "{address} ethAddress address of the bank\r"
        }
      },
      "removeBank(address)": {
        "params": {
          "": "{string} bankName Name of the bankName\r"
        },
        "return": "{uint8} flag if removal is succesful\r"
      }
    }
  },
  "userdoc": {
    "methods": {
      "addBank(string,string,address)": {
        "notice": "Adds bank to banks mapping and bank's address to bankAddresses list\r"
      },
      "removeBank(address)": {
        "notice": "Removes bank from banks mapping and remove bank's address to bankAddresses list\r"
      }
    }
  }
}