{
  "contractName": "BankHandler",
  "abi": [
    {
      "inputs": [],
      "payable": false,
      "stateMutability": "nonpayable",
      "type": "constructor"
    },
    {
      "constant": false,
      "inputs": [
        {
          "name": "_userName",
          "type": "string"
        },
        {
          "name": "_customerData",
          "type": "string"
        }
      ],
      "name": "addKycRequest",
      "outputs": [
        {
          "name": "",
          "type": "uint8"
        }
      ],
      "payable": false,
      "stateMutability": "nonpayable",
      "type": "function"
    },
    {
      "constant": true,
      "inputs": [
        {
          "name": "bankAddress",
          "type": "address"
        }
      ],
      "name": "getBankRequests",
      "outputs": [
        {
          "name": "",
          "type": "address[]"
        },
        {
          "name": "",
          "type": "bytes32[]"
        },
        {
          "name": "",
          "type": "bytes32[]"
        },
        {
          "name": "",
          "type": "bool[]"
        }
      ],
      "payable": false,
      "stateMutability": "view",
      "type": "function"
    },
    {
      "constant": false,
      "inputs": [
        {
          "name": "_userName",
          "type": "string"
        },
        {
          "name": "_customerData",
          "type": "string"
        }
      ],
      "name": "addCustomer",
      "outputs": [
        {
          "name": "",
          "type": "uint8"
        }
      ],
      "payable": false,
      "stateMutability": "nonpayable",
      "type": "function"
    },
    {
      "constant": false,
      "inputs": [
        {
          "name": "_userName",
          "type": "string"
        },
        {
          "name": "customerData",
          "type": "string"
        }
      ],
      "name": "removeKYCRequest",
      "outputs": [
        {
          "name": "",
          "type": "uint8"
        }
      ],
      "payable": false,
      "stateMutability": "nonpayable",
      "type": "function"
    },
    {
      "constant": false,
      "inputs": [
        {
          "name": "_userName",
          "type": "string"
        }
      ],
      "name": "removeCustomer",
      "outputs": [
        {
          "name": "",
          "type": "uint8"
        }
      ],
      "payable": false,
      "stateMutability": "nonpayable",
      "type": "function"
    },
    {
      "constant": false,
      "inputs": [
        {
          "name": "_userName",
          "type": "string"
        },
        {
          "name": "_newcustomerData",
          "type": "string"
        },
        {
          "name": "password",
          "type": "string"
        }
      ],
      "name": "modifyCustomer",
      "outputs": [
        {
          "name": "",
          "type": "uint8"
        }
      ],
      "payable": false,
      "stateMutability": "nonpayable",
      "type": "function"
    },
    {
      "constant": true,
      "inputs": [
        {
          "name": "_userName",
          "type": "string"
        },
        {
          "name": "password",
          "type": "string"
        }
      ],
      "name": "viewCustomer",
      "outputs": [
        {
          "name": "",
          "type": "string"
        },
        {
          "name": "",
          "type": "string"
        },
        {
          "name": "",
          "type": "uint8"
        },
        {
          "name": "",
          "type": "address"
        }
      ],
      "payable": false,
      "stateMutability": "view",
      "type": "function"
    },
    {
      "constant": false,
      "inputs": [
        {
          "name": "_userName",
          "type": "string"
        }
      ],
      "name": "upvoteCustomer",
      "outputs": [
        {
          "name": "",
          "type": "uint8"
        }
      ],
      "payable": false,
      "stateMutability": "nonpayable",
      "type": "function"
    },
    {
      "constant": false,
      "inputs": [
        {
          "name": "bankAddress",
          "type": "address"
        }
      ],
      "name": "upVoteBank",
      "outputs": [
        {
          "name": "",
          "type": "uint8"
        }
      ],
      "payable": false,
      "stateMutability": "nonpayable",
      "type": "function"
    },
    {
      "constant": true,
      "inputs": [
        {
          "name": "bankAddress",
          "type": "address"
        }
      ],
      "name": "getBankDetails",
      "outputs": [
        {
          "name": "",
          "type": "address"
        },
        {
          "name": "",
          "type": "string"
        },
        {
          "name": "",
          "type": "string"
        },
        {
          "name": "",
          "type": "uint256"
        },
        {
          "name": "",
          "type": "uint256"
        },
        {
          "name": "",
          "type": "uint8"
        }
      ],
      "payable": false,
      "stateMutability": "view",
      "type": "function"
    },
    {
      "constant": true,
      "inputs": [
        {
          "name": "bankAddress",
          "type": "address"
        }
      ],
      "name": "getBankRating",
      "outputs": [
        {
          "name": "",
          "type": "uint256"
        }
      ],
      "payable": false,
      "stateMutability": "view",
      "type": "function"
    },
    {
      "constant": true,
      "inputs": [
        {
          "name": "username",
          "type": "string"
        }
      ],
      "name": "getCustomerRating",
      "outputs": [
        {
          "name": "",
          "type": "uint256"
        }
      ],
      "payable": false,
      "stateMutability": "view",
      "type": "function"
    },
    {
      "constant": true,
      "inputs": [
        {
          "name": "username",
          "type": "string"
        }
      ],
      "name": "getAccessHistory",
      "outputs": [
        {
          "name": "",
          "type": "address"
        },
        {
          "name": "",
          "type": "string"
        },
        {
          "name": "",
          "type": "string"
        },
        {
          "name": "",
          "type": "uint256"
        },
        {
          "name": "",
          "type": "uint256"
        },
        {
          "name": "",
          "type": "uint8"
        }
      ],
      "payable": false,
      "stateMutability": "view",
      "type": "function"
    },
    {
      "constant": false,
      "inputs": [
        {
          "name": "username",
          "type": "string"
        },
        {
          "name": "password",
          "type": "string"
        }
      ],
      "name": "setCustomerPassword",
      "outputs": [
        {
          "name": "",
          "type": "uint8"
        }
      ],
      "payable": false,
      "stateMutability": "nonpayable",
      "type": "function"
    },
    {
      "constant": false,
      "inputs": [
        {
          "name": "username",
          "type": "string"
        },
        {
          "name": "currentPassword",
          "type": "string"
        },
        {
          "name": "newPassword",
          "type": "string"
        }
      ],
      "name": "modifyCustomerPassword",
      "outputs": [
        {
          "name": "",
          "type": "uint8"
        }
      ],
      "payable": false,
      "stateMutability": "nonpayable",
      "type": "function"
    }
  ],
  "bytecode": "0x608060405234801561001057600080fd5b5061576480620000216000396000f3fe608060405234801561001057600080fd5b5060043610610112576000357c010000000000000000000000000000000000000000000000000000000090048063b67137d0116100b4578063dc4009a411610083578063dc4009a4146110c7578063def1211514611233578063f2f4ed8f1461139f578063fc55ea9d1461147457610112565b8063b67137d014610ca2578063b8144a7214610ea5578063ccb6b0d214610efd578063d4a46c5114610f5b57610112565b8063628e09ad116100f0578063628e09ad146106715780638117eada146107e25780638eafe0f0146109d0578063a18dce7b14610a9f57610112565b806315101e02146101175780631f2c141a1461028e5780633190abc014610505575b600080fd5b6101596004803603602081101561012d57600080fd5b81019080803573ffffffffffffffffffffffffffffffffffffffff169060200190929190505050611549565b604051808773ffffffffffffffffffffffffffffffffffffffff1673ffffffffffffffffffffffffffffffffffffffff16815260200180602001806020018681526020018581526020018460ff1660ff168152602001838103835288818151815260200191508051906020019080838360005b838110156101e75780820151818401526020810190506101cc565b50505050905090810190601f1680156102145780820380516001836020036101000a031916815260200191505b50838103825287818151815260200191508051906020019080838360005b8381101561024d578082015181840152602081019050610232565b50505050905090810190601f16801561027a5780820380516001836020036101000a031916815260200191505b509850505050505050505060405180910390f35b6103de600480360360408110156102a457600080fd5b81019080803590602001906401000000008111156102c157600080fd5b8201836020820111156102d357600080fd5b803590602001918460018302840111640100000000831117156102f557600080fd5b91908080601f016020809104026020016040519081016040528093929190818152602001838380828437600081840152601f19601f8201169050808301925050505050505091929192908035906020019064010000000081111561035857600080fd5b82018360208201111561036a57600080fd5b8035906020019184600183028401116401000000008311171561038c57600080fd5b91908080601f016020809104026020016040519081016040528093929190818152602001838380828437600081840152601f19601f820116905080830192505050505050509192919290505050611944565b6040518080602001806020018560ff1660ff1681526020018473ffffffffffffffffffffffffffffffffffffffff1673ffffffffffffffffffffffffffffffffffffffff168152602001838103835287818151815260200191508051906020019080838360005b83811015610460578082015181840152602081019050610445565b50505050905090810190601f16801561048d5780820380516001836020036101000a031916815260200191505b50838103825286818151815260200191508051906020019080838360005b838110156104c65780820151818401526020810190506104ab565b50505050905090810190601f1680156104f35780820380516001836020036101000a031916815260200191505b50965050505050505060405180910390f35b6106556004803603604081101561051b57600080fd5b810190808035906020019064010000000081111561053857600080fd5b82018360208201111561054a57600080fd5b8035906020019184600183028401116401000000008311171561056c57600080fd5b91908080601f016020809104026020016040519081016040528093929190818152602001838380828437600081840152601f19601f820116905080830192505050505050509192919290803590602001906401000000008111156105cf57600080fd5b8201836020820111156105e157600080fd5b8035906020019184600183028401116401000000008311171561060357600080fd5b91908080601f016020809104026020016040519081016040528093929190818152602001838380828437600081840152601f19601f820116905080830192505050505050509192919290505050611e31565b604051808260ff1660ff16815260200191505060405180910390f35b6106b36004803603602081101561068757600080fd5b81019080803573ffffffffffffffffffffffffffffffffffffffff16906020019092919050505061260a565b6040518080602001806020018060200180602001858103855289818151815260200191508051906020019060200280838360005b838110156107025780820151818401526020810190506106e7565b50505050905001858103845288818151815260200191508051906020019060200280838360005b83811015610744578082015181840152602081019050610729565b50505050905001858103835287818151815260200191508051906020019060200280838360005b8381101561078657808201518184015260208101905061076b565b50505050905001858103825286818151815260200191508051906020019060200280838360005b838110156107c85780820151818401526020810190506107ad565b505050509050019850505050505050505060405180910390f35b61089b600480360360208110156107f857600080fd5b810190808035906020019064010000000081111561081557600080fd5b82018360208201111561082757600080fd5b8035906020019184600183028401116401000000008311171561084957600080fd5b91908080601f016020809104026020016040519081016040528093929190818152602001838380828437600081840152601f19601f820116905080830192505050505050509192919290505050612aae565b604051808773ffffffffffffffffffffffffffffffffffffffff1673ffffffffffffffffffffffffffffffffffffffff16815260200180602001806020018681526020018581526020018460ff1660ff168152602001838103835288818151815260200191508051906020019080838360005b8381101561092957808201518184015260208101905061090e565b50505050905090810190601f1680156109565780820380516001836020036101000a031916815260200191505b50838103825287818151815260200191508051906020019080838360005b8381101561098f578082015181840152602081019050610974565b50505050905090810190601f1680156109bc5780820380516001836020036101000a031916815260200191505b509850505050505050505060405180910390f35b610a89600480360360208110156109e657600080fd5b8101908080359060200190640100000000811115610a0357600080fd5b820183602082011115610a1557600080fd5b80359060200191846001830284011164010000000083111715610a3757600080fd5b91908080601f016020809104026020016040519081016040528093929190818152602001838380828437600081840152601f19601f820116905080830192505050505050509192919290505050612b62565b6040518082815260200191505060405180910390f35b610c8660048036036060811015610ab557600080fd5b8101908080359060200190640100000000811115610ad257600080fd5b820183602082011115610ae457600080fd5b80359060200191846001830284011164010000000083111715610b0657600080fd5b91908080601f016020809104026020016040519081016040528093929190818152602001838380828437600081840152601f19601f82011690508083019250505050505050919291929080359060200190640100000000811115610b6957600080fd5b820183602082011115610b7b57600080fd5b80359060200191846001830284011164010000000083111715610b9d57600080fd5b91908080601f016020809104026020016040519081016040528093929190818152602001838380828437600081840152601f19601f82011690508083019250505050505050919291929080359060200190640100000000811115610c0057600080fd5b820183602082011115610c1257600080fd5b80359060200191846001830284011164010000000083111715610c3457600080fd5b91908080601f016020809104026020016040519081016040528093929190818152602001838380828437600081840152601f19601f820116905080830192505050505050509192919290505050612c75565b604051808260ff1660ff16815260200191505060405180910390f35b610e8960048036036060811015610cb857600080fd5b8101908080359060200190640100000000811115610cd557600080fd5b820183602082011115610ce757600080fd5b80359060200191846001830284011164010000000083111715610d0957600080fd5b91908080601f016020809104026020016040519081016040528093929190818152602001838380828437600081840152601f19601f82011690508083019250505050505050919291929080359060200190640100000000811115610d6c57600080fd5b820183602082011115610d7e57600080fd5b80359060200191846001830284011164010000000083111715610da057600080fd5b91908080601f016020809104026020016040519081016040528093929190818152602001838380828437600081840152601f19601f82011690508083019250505050505050919291929080359060200190640100000000811115610e0357600080fd5b820183602082011115610e1557600080fd5b80359060200191846001830284011164010000000083111715610e3757600080fd5b91908080601f016020809104026020016040519081016040528093929190818152602001838380828437600081840152601f19601f820116905080830192505050505050509192919290505050613289565b604051808260ff1660ff16815260200191505060405180910390f35b610ee760048036036020811015610ebb57600080fd5b81019080803573ffffffffffffffffffffffffffffffffffffffff1690602001909291905050506135d1565b6040518082815260200191505060405180910390f35b610f3f60048036036020811015610f1357600080fd5b81019080803573ffffffffffffffffffffffffffffffffffffffff169060200190929190505050613704565b604051808260ff1660ff16815260200191505060405180910390f35b6110ab60048036036040811015610f7157600080fd5b8101908080359060200190640100000000811115610f8e57600080fd5b820183602082011115610fa057600080fd5b80359060200191846001830284011164010000000083111715610fc257600080fd5b91908080601f016020809104026020016040519081016040528093929190818152602001838380828437600081840152601f19601f8201169050808301925050505050505091929192908035906020019064010000000081111561102557600080fd5b82018360208201111561103757600080fd5b8035906020019184600183028401116401000000008311171561105957600080fd5b91908080601f016020809104026020016040519081016040528093929190818152602001838380828437600081840152601f19601f820116905080830192505050505050509192919290505050613c0c565b604051808260ff1660ff16815260200191505060405180910390f35b611217600480360360408110156110dd57600080fd5b81019080803590602001906401000000008111156110fa57600080fd5b82018360208201111561110c57600080fd5b8035906020019184600183028401116401000000008311171561112e57600080fd5b91908080601f016020809104026020016040519081016040528093929190818152602001838380828437600081840152601f19601f8201169050808301925050505050505091929192908035906020019064010000000081111561119157600080fd5b8201836020820111156111a357600080fd5b803590602001918460018302840111640100000000831117156111c557600080fd5b91908080601f016020809104026020016040519081016040528093929190818152602001838380828437600081840152601f19601f8201169050808301925050505050505091929192905050506141c5565b604051808260ff1660ff16815260200191505060405180910390f35b6113836004803603604081101561124957600080fd5b810190808035906020019064010000000081111561126657600080fd5b82018360208201111561127857600080fd5b8035906020019184600183028401116401000000008311171561129a57600080fd5b91908080601f016020809104026020016040519081016040528093929190818152602001838380828437600081840152601f19601f820116905080830192505050505050509192919290803590602001906401000000008111156112fd57600080fd5b82018360208201111561130f57600080fd5b8035906020019184600183028401116401000000008311171561133157600080fd5b91908080601f016020809104026020016040519081016040528093929190818152602001838380828437600081840152601f19601f8201169050808301925050505050505091929192905050506145b2565b604051808260ff1660ff16815260200191505060405180910390f35b611458600480360360208110156113b557600080fd5b81019080803590602001906401000000008111156113d257600080fd5b8201836020820111156113e457600080fd5b8035906020019184600183028401116401000000008311171561140657600080fd5b91908080601f016020809104026020016040519081016040528093929190818152602001838380828437600081840152601f19601f820116905080830192505050505050509192919290505050614833565b604051808260ff1660ff16815260200191505060405180910390f35b61152d6004803603602081101561148a57600080fd5b81019080803590602001906401000000008111156114a757600080fd5b8201836020820111156114b957600080fd5b803590602001918460018302840111640100000000831117156114db57600080fd5b91908080601f016020809104026020016040519081016040528093929190818152602001838380828437600081840152601f19601f820116905080830192505050505050509192919290505050614e14565b604051808260ff1660ff16815260200191505060405180910390f35b600060608060008060008073ffffffffffffffffffffffffffffffffffffffff16600360008973ffffffffffffffffffffffffffffffffffffffff1673ffffffffffffffffffffffffffffffffffffffff16815260200190815260200160002060000160009054906101000a900473ffffffffffffffffffffffffffffffffffffffff1673ffffffffffffffffffffffffffffffffffffffff16141561163a576040517f08c379a000000000000000000000000000000000000000000000000000000000815260040180806020018281038252602781526020018061558e6027913960400191505060405180910390fd5b600360008873ffffffffffffffffffffffffffffffffffffffff1673ffffffffffffffffffffffffffffffffffffffff16815260200190815260200160002060000160009054906101000a900473ffffffffffffffffffffffffffffffffffffffff16600360008973ffffffffffffffffffffffffffffffffffffffff1673ffffffffffffffffffffffffffffffffffffffff168152602001908152602001600020600101600360008a73ffffffffffffffffffffffffffffffffffffffff1673ffffffffffffffffffffffffffffffffffffffff168152602001908152602001600020600201600360008b73ffffffffffffffffffffffffffffffffffffffff1673ffffffffffffffffffffffffffffffffffffffff16815260200190815260200160002060030154600360008c73ffffffffffffffffffffffffffffffffffffffff1673ffffffffffffffffffffffffffffffffffffffff16815260200190815260200160002060040154600360008d73ffffffffffffffffffffffffffffffffffffffff1673ffffffffffffffffffffffffffffffffffffffff16815260200190815260200160002060050160009054906101000a900460ff16848054600181600116156101000203166002900480601f01602080910402602001604051908101604052809291908181526020018280546001816001161561010002031660029004801561188c5780601f106118615761010080835404028352916020019161188c565b820191906000526020600020905b81548152906001019060200180831161186f57829003601f168201915b50505050509450838054600181600116156101000203166002900480601f0160208091040260200160405190810160405280929190818152602001828054600181600116156101000203166002900480156119285780601f106118fd57610100808354040283529160200191611928565b820191906000526020600020905b81548152906001019060200180831161190b57829003601f168201915b5050505050935095509550955095509550955091939550919395565b606080600080858560006119c26001846040518082805190602001908083835b602083106119875780518252602082019150602081019050602083039250611964565b6001836020036101000a0380198251168184511680821785525050505050509050019150509081526020016040518091039020600001614fd2565b1415611a36576040517f08c379a00000000000000000000000000000000000000000000000000000000081526004018080602001828103825260138152602001807f437573746f6d6572206e6f7420666f756e642e0000000000000000000000000081525060200191505060405180910390fd5b80805190602001206001836040518082805190602001908083835b60208310611a745780518252602082019150602081019050602083039250611a51565b6001836020036101000a0380198251168184511680821785525050505050509050019150509081526020016040518091039020600401541415611dd5576001886040518082805190602001908083835b60208310611ae75780518252602082019150602081019050602083039250611ac4565b6001836020036101000a03801982511681845116808217855250505050505090500191505090815260200160405180910390206000016001896040518082805190602001908083835b60208310611b535780518252602082019150602081019050602083039250611b30565b6001836020036101000a038019825116818451168082178552505050505050905001915050908152602001604051809103902060010160018a6040518082805190602001908083835b60208310611bbf5780518252602082019150602081019050602083039250611b9c565b6001836020036101000a038019825116818451168082178552505050505050905001915050908152602001604051809103902060020160009054906101000a900460ff1660018b6040518082805190602001908083835b60208310611c395780518252602082019150602081019050602083039250611c16565b6001836020036101000a038019825116818451168082178552505050505050905001915050908152602001604051809103902060020160019054906101000a900473ffffffffffffffffffffffffffffffffffffffff16838054600181600116156101000203166002900480601f016020809104026020016040519081016040528092919081815260200182805460018160011615610100020316600290048015611d255780601f10611cfa57610100808354040283529160200191611d25565b820191906000526020600020905b815481529060010190602001808311611d0857829003601f168201915b50505050509350828054600181600116156101000203166002900480601f016020809104026020016040519081016040528092919081815260200182805460018160011615610100020316600290048015611dc15780601f10611d9657610100808354040283529160200191611dc1565b820191906000526020600020905b815481529060010190602001808311611da457829003601f168201915b505050505092509550955095509550611e26565b6040517f08c379a000000000000000000000000000000000000000000000000000000000815260040180806020018281038252603b81526020018061552b603b913960400191505060405180910390fd5b505092959194509250565b60008073ffffffffffffffffffffffffffffffffffffffff16600360003373ffffffffffffffffffffffffffffffffffffffff1673ffffffffffffffffffffffffffffffffffffffff16815260200190815260200160002060000160009054906101000a900473ffffffffffffffffffffffffffffffffffffffff1673ffffffffffffffffffffffffffffffffffffffff161415611f37576040517f08c379a000000000000000000000000000000000000000000000000000000000815260040180806020018281038252601e8152602001807f596f7520617265206e6f7420726567697374657265642061732062616e6b000081525060200191505060405180910390fd5b8282600080905060008090505b60068054905081101561209a57611fe4600560068381548110611f6357fe5b906000526020600020016040518082805460018160011615610100020316600290048015611fc85780601f10611fa6576101008083540402835291820191611fc8565b820191906000526020600020905b815481529060010190602001808311611fb4575b5050915050908152602001604051809103902060010184614ff1565b801561207f575061207e600560068381548110611ffd57fe5b9060005260206000200160405180828054600181600116156101000203166002900480156120625780601f10612040576101008083540402835291820191612062565b820191906000526020600020905b81548152906001019060200180831161204e575b5050915050908152602001604051809103902060000185614ff1565b5b1561208d576001915061209a565b8080600101915050611f44565b50806120f1576040517f08c379a000000000000000000000000000000000000000000000000000000000815260040180806020018281038252602b815260200180615500602b913960400191505060405180910390fd5b84600115156005826040518082805190602001908083835b6020831061212c5780518252602082019150602081019050602083039250612109565b6001836020036101000a038019825116818451168082178552505050505050905001915050908152602001604051809103902060020160149054906101000a900460ff161515146121c8576040517f08c379a00000000000000000000000000000000000000000000000000000000081526004018080602001828103825260328152602001806156c06032913960400191505060405180910390fd5b600073ffffffffffffffffffffffffffffffffffffffff166001886040518082805190602001908083835b6020831061221657805182526020820191506020810190506020830392506121f3565b6001836020036101000a038019825116818451168082178552505050505050905001915050908152602001604051809103902060020160019054906101000a900473ffffffffffffffffffffffffffffffffffffffff1673ffffffffffffffffffffffffffffffffffffffff16146122d9576040517f08c379a00000000000000000000000000000000000000000000000000000000081526004018080602001828103825260568152602001806155b56056913960600191505060405180910390fd5b866001886040518082805190602001908083835b6020831061231057805182526020820191506020810190506020830392506122ed565b6001836020036101000a038019825116818451168082178552505050505050905001915050908152602001604051809103902060000190805190602001906123599291906152ac565b50856001886040518082805190602001908083835b60208310612391578051825260208201915060208101905060208303925061236e565b6001836020036101000a038019825116818451168082178552505050505050905001915050908152602001604051809103902060010190805190602001906123da9291906152ac565b50336001886040518082805190602001908083835b6020831061241257805182526020820191506020810190506020830392506123ef565b6001836020036101000a038019825116818451168082178552505050505050905001915050908152602001604051809103902060020160016101000a81548173ffffffffffffffffffffffffffffffffffffffff021916908373ffffffffffffffffffffffffffffffffffffffff16021790555060006001886040518082805190602001908083835b602083106124be578051825260208201915060208101905060208303925061249b565b6001836020036101000a038019825116818451168082178552505050505050905001915050908152602001604051809103902060020160006101000a81548160ff021916908360ff16021790555060405180807f3000000000000000000000000000000000000000000000000000000000000000815250600101905060405180910390206001886040518082805190602001908083835b602083106125785780518252602082019150602081019050602083039250612555565b6001836020036101000a03801982511681845116808217855250505050505090500191505090815260200160405180910390206004018190555060028790806001815401808255809150509060018203906000526020600020016000909192909190915090805190602001906125ef9291906152ac565b50506125fb87876141c5565b50600194505050505092915050565b6060806060806000600360008773ffffffffffffffffffffffffffffffffffffffff1673ffffffffffffffffffffffffffffffffffffffff1681526020019081526020016000209050606081600301546040519080825280602002602001820160405280156126885781602001602082028038833980820191505090505b509050606082600301546040519080825280602002602001820160405280156126c05781602001602082028038833980820191505090505b509050606083600301546040519080825280602002602001820160405280156126f85781602001602082028038833980820191505090505b509050606084600301546040519080825280602002602001820160405280156127305781602001602082028038833980820191505090505b509050600080905060008090505b600680549050811015612a94578b73ffffffffffffffffffffffffffffffffffffffff1660056006838154811061277157fe5b9060005260206000200160405180828054600181600116156101000203166002900480156127d65780601f106127b45761010080835404028352918201916127d6565b820191906000526020600020905b8154815290600101906020018083116127c2575b5050915050908152602001604051809103902060020160009054906101000a900473ffffffffffffffffffffffffffffffffffffffff1673ffffffffffffffffffffffffffffffffffffffff161415612a87578b86838151811061283657fe5b602002602001019073ffffffffffffffffffffffffffffffffffffffff16908173ffffffffffffffffffffffffffffffffffffffff168152505061290460056006838154811061288257fe5b9060005260206000200160405180828054600181600116156101000203166002900480156128e75780601f106128c55761010080835404028352918201916128e7565b820191906000526020600020905b8154815290600101906020018083116128d3575b50509150509081526020016040518091039020600001600061516f565b85838151811061291057fe5b60200260200101818152505060056006828154811061292b57fe5b9060005260206000200160405180828054600181600116156101000203166002900480156129905780601f1061296e576101008083540402835291820191612990565b820191906000526020600020905b81548152906001019060200180831161297c575b5050915050908152602001604051809103902060020160149054906101000a900460ff168383815181106129c057fe5b602002602001019015159081151581525050612a666005600683815481106129e457fe5b906000526020600020016040518082805460018160011615610100020316600290048015612a495780601f10612a27576101008083540402835291820191612a49565b820191906000526020600020905b815481529060010190602001808311612a35575b50509150509081526020016040518091039020600101600061516f565b848381518110612a7257fe5b60200260200101818152505081806001019250505b808060010191505061273e565b508484848499509950995099505050505050509193509193565b60006060806000806000612b4d6001886040518082805190602001908083835b60208310612af15780518252602082019150602081019050602083039250612ace565b6001836020036101000a038019825116818451168082178552505050505050905001915050908152602001604051809103902060020160019054906101000a900473ffffffffffffffffffffffffffffffffffffffff16611549565b95509550955095509550955091939550919395565b600080600090505b600280549050811015612c1e57612b9760028281548110612b8757fe5b9060005260206000200184614ff1565b15612c11576001836040518082805190602001908083835b60208310612bd25780518252602082019150602081019050602083039250612baf565b6001836020036101000a038019825116818451168082178552505050505050905001915050908152602001604051809103902060030154915050612c70565b8080600101915050612b6a565b506040517f08c379a00000000000000000000000000000000000000000000000000000000081526004018080602001828103825260288152602001806155666028913960400191505060405180910390fd5b919050565b600083826000612cef6001846040518082805190602001908083835b60208310612cb45780518252602082019150602081019050602083039250612c91565b6001836020036101000a0380198251168184511680821785525050505050509050019150509081526020016040518091039020600001614fd2565b1415612d63576040517f08c379a00000000000000000000000000000000000000000000000000000000081526004018080602001828103825260138152602001807f437573746f6d6572206e6f7420666f756e642e0000000000000000000000000081525060200191505060405180910390fd5b80805190602001206001836040518082805190602001908083835b60208310612da15780518252602082019150602081019050602083039250612d7e565b6001836020036101000a038019825116818451168082178552505050505050905001915050908152602001604051809103902060040154141561322f5760008090505b60028054905081101561322457612e1160028281548110612e0157fe5b9060005260206000200188614ff1565b1561321757612e8b6007886040518082805190602001908083835b60208310612e4f5780518252602082019150602081019050602083039250612e2c565b6001836020036101000a038019825116818451168082178552505050505050905001915050908152602001604051809103902060000188614ff1565b15612f68576007876040518082805190602001908083835b60208310612ec65780518252602082019150602081019050602083039250612ea3565b6001836020036101000a038019825116818451168082178552505050505050905001915050908152602001604051809103902060008082016000612f0a919061532c565b600182016000612f1a919061532c565b6002820160006101000a81549060ff02191690556002820160016101000a81549073ffffffffffffffffffffffffffffffffffffffff02191690556003820160009055600482016000905550505b856001886040518082805190602001908083835b60208310612f9f5780518252602082019150602081019050602083039250612f7c565b6001836020036101000a03801982511681845116808217855250505050505090500191505090815260200160405180910390206001019080519060200190612fe89291906152ac565b50866001886040518082805190602001908083835b602083106130205780518252602082019150602081019050602083039250612ffd565b6001836020036101000a038019825116818451168082178552505050505050905001915050908152602001604051809103902060000190805190602001906130699291906152ac565b5060006001886040518082805190602001908083835b602083106130a2578051825260208201915060208101905060208303925061307f565b6001836020036101000a038019825116818451168082178552505050505050905001915050908152602001604051809103902060020160006101000a81548160ff021916908360ff16021790555060006001886040518082805190602001908083835b602083106131285780518252602082019150602081019050602083039250613105565b6001836020036101000a038019825116818451168082178552505050505050905001915050908152602001604051809103902060030181905550336001886040518082805190602001908083835b602083106131995780518252602082019150602081019050602083039250613176565b6001836020036101000a038019825116818451168082178552505050505050905001915050908152602001604051809103902060020160016101000a81548173ffffffffffffffffffffffffffffffffffffffff021916908373ffffffffffffffffffffffffffffffffffffffff160217905550600193505061322a565b8080600101915050612de4565b50600092505b613280565b6040517f08c379a000000000000000000000000000000000000000000000000000000000815260040180806020018281038252603b81526020018061552b603b913960400191505060405180910390fd5b50509392505050565b60008073ffffffffffffffffffffffffffffffffffffffff16600360003373ffffffffffffffffffffffffffffffffffffffff1673ffffffffffffffffffffffffffffffffffffffff16815260200190815260200160002060000160009054906101000a900473ffffffffffffffffffffffffffffffffffffffff1673ffffffffffffffffffffffffffffffffffffffff16141561338f576040517f08c379a000000000000000000000000000000000000000000000000000000000815260040180806020018281038252601e8152602001807f596f7520617265206e6f7420726567697374657265642061732062616e6b000081525060200191505060405180910390fd5b838360006134076001846040518082805190602001908083835b602083106133cc57805182526020820191506020810190506020830392506133a9565b6001836020036101000a0380198251168184511680821785525050505050509050019150509081526020016040518091039020600001614fd2565b141561347b576040517f08c379a00000000000000000000000000000000000000000000000000000000081526004018080602001828103825260138152602001807f437573746f6d6572206e6f7420666f756e642e0000000000000000000000000081525060200191505060405180910390fd5b80805190602001206001836040518082805190602001908083835b602083106134b95780518252602082019150602081019050602083039250613496565b6001836020036101000a03801982511681845116808217855250505050505090500191505090815260200160405180910390206004015414156135775783805190602001206001876040518082805190602001908083835b602083106135345780518252602082019150602081019050602083039250613511565b6001836020036101000a038019825116818451168082178552505050505050905001915050908152602001604051809103902060040181905550600192506135c8565b6040517f08c379a000000000000000000000000000000000000000000000000000000000815260040180806020018281038252603b81526020018061552b603b913960400191505060405180910390fd5b50509392505050565b60008073ffffffffffffffffffffffffffffffffffffffff16600360008473ffffffffffffffffffffffffffffffffffffffff1673ffffffffffffffffffffffffffffffffffffffff16815260200190815260200160002060000160009054906101000a900473ffffffffffffffffffffffffffffffffffffffff1673ffffffffffffffffffffffffffffffffffffffff1614156136ba576040517f08c379a000000000000000000000000000000000000000000000000000000000815260040180806020018281038252602781526020018061558e6027913960400191505060405180910390fd5b600360008373ffffffffffffffffffffffffffffffffffffffff1673ffffffffffffffffffffffffffffffffffffffff168152602001908152602001600020600401549050919050565b60008073ffffffffffffffffffffffffffffffffffffffff16600360003373ffffffffffffffffffffffffffffffffffffffff1673ffffffffffffffffffffffffffffffffffffffff16815260200190815260200160002060000160009054906101000a900473ffffffffffffffffffffffffffffffffffffffff1673ffffffffffffffffffffffffffffffffffffffff16141561380a576040517f08c379a000000000000000000000000000000000000000000000000000000000815260040180806020018281038252601e8152602001807f596f7520617265206e6f7420726567697374657265642061732062616e6b000081525060200191505060405180910390fd5b3373ffffffffffffffffffffffffffffffffffffffff168273ffffffffffffffffffffffffffffffffffffffff1614156138ac576040517f08c379a00000000000000000000000000000000000000000000000000000000081526004018080602001828103825260188152602001807f596f752063616e6e6f7420766f746520796f757273656c66000000000000000081525060200191505060405180910390fd5b600073ffffffffffffffffffffffffffffffffffffffff16600360008473ffffffffffffffffffffffffffffffffffffffff1673ffffffffffffffffffffffffffffffffffffffff16815260200190815260200160002060000160009054906101000a900473ffffffffffffffffffffffffffffffffffffffff1673ffffffffffffffffffffffffffffffffffffffff161415613994576040517f08c379a000000000000000000000000000000000000000000000000000000000815260040180806020018281038252603581526020018061568b6035913960400191505060405180910390fd5b6000600960008473ffffffffffffffffffffffffffffffffffffffff1673ffffffffffffffffffffffffffffffffffffffff16815260200190815260200160002060003373ffffffffffffffffffffffffffffffffffffffff1673ffffffffffffffffffffffffffffffffffffffff1681526020019081526020016000205414613a69576040517f08c379a00000000000000000000000000000000000000000000000000000000081526004018080602001828103825260288152602001806156636028913960400191505060405180910390fd5b600360008373ffffffffffffffffffffffffffffffffffffffff1673ffffffffffffffffffffffffffffffffffffffff168152602001908152602001600020600501600081819054906101000a900460ff168092919060010191906101000a81548160ff021916908360ff16021790555050613b3c600360008473ffffffffffffffffffffffffffffffffffffffff1673ffffffffffffffffffffffffffffffffffffffff16815260200190815260200160002060050160009054906101000a900460ff1660ff16600480549050615295565b600360008473ffffffffffffffffffffffffffffffffffffffff1673ffffffffffffffffffffffffffffffffffffffff1681526020019081526020016000206004018190555042600960008473ffffffffffffffffffffffffffffffffffffffff1673ffffffffffffffffffffffffffffffffffffffff16815260200190815260200160002060003373ffffffffffffffffffffffffffffffffffffffff1673ffffffffffffffffffffffffffffffffffffffff1681526020019081526020016000208190555060019050919050565b60008073ffffffffffffffffffffffffffffffffffffffff16600360003373ffffffffffffffffffffffffffffffffffffffff1673ffffffffffffffffffffffffffffffffffffffff16815260200190815260200160002060000160009054906101000a900473ffffffffffffffffffffffffffffffffffffffff1673ffffffffffffffffffffffffffffffffffffffff161415613d12576040517f08c379a000000000000000000000000000000000000000000000000000000000815260040180806020018281038252601e8152602001807f596f7520617265206e6f7420726567697374657265642061732062616e6b000081525060200191505060405180910390fd5b600073ffffffffffffffffffffffffffffffffffffffff166005836040518082805190602001908083835b60208310613d605780518252602082019150602081019050602083039250613d3d565b6001836020036101000a038019825116818451168082178552505050505050905001915050908152602001604051809103902060020160009054906101000a900473ffffffffffffffffffffffffffffffffffffffff1673ffffffffffffffffffffffffffffffffffffffff1614613e23576040517f08c379a000000000000000000000000000000000000000000000000000000000815260040180806020018281038252603e8152602001806156f2603e913960400191505060405180910390fd5b816005836040518082805190602001908083835b60208310613e5a5780518252602082019150602081019050602083039250613e37565b6001836020036101000a03801982511681845116808217855250505050505090500191505090815260200160405180910390206001019080519060200190613ea39291906152ac565b50826005836040518082805190602001908083835b60208310613edb5780518252602082019150602081019050602083039250613eb8565b6001836020036101000a03801982511681845116808217855250505050505090500191505090815260200160405180910390206000019080519060200190613f249291906152ac565b50336005836040518082805190602001908083835b60208310613f5c5780518252602082019150602081019050602083039250613f39565b6001836020036101000a038019825116818451168082178552505050505050905001915050908152602001604051809103902060020160006101000a81548173ffffffffffffffffffffffffffffffffffffffff021916908373ffffffffffffffffffffffffffffffffffffffff160217905550600360003373ffffffffffffffffffffffffffffffffffffffff1673ffffffffffffffffffffffffffffffffffffffff168152602001908152602001600020600301600081548092919060010191905055506032600360003373ffffffffffffffffffffffffffffffffffffffff1673ffffffffffffffffffffffffffffffffffffffff16815260200190815260200160002060040154116140f65760006005836040518082805190602001908083835b602083106140a45780518252602082019150602081019050602083039250614081565b6001836020036101000a038019825116818451168082178552505050505050905001915050908152602001604051809103902060020160146101000a81548160ff02191690831515021790555061417c565b60016005836040518082805190602001908083835b6020831061412e578051825260208201915060208101905060208303925061410b565b6001836020036101000a038019825116818451168082178552505050505050905001915050908152602001604051809103902060020160146101000a81548160ff0219169083151502179055505b60068290806001815401808255809150509060018203906000526020600020016000909192909190915090805190602001906141b99291906152ac565b50506001905092915050565b60008060009050600090505b6006805490508160ff1610156145a857614277600560068360ff16815481106141f657fe5b90600052602060002001604051808280546001816001161561010002031660029004801561425b5780601f1061423957610100808354040283529182019161425b565b820191906000526020600020905b815481529060010190602001808311614247575b5050915050908152602001604051809103902060000185614ff1565b80156143155750614314600560068360ff168154811061429357fe5b9060005260206000200160405180828054600181600116156101000203166002900480156142f85780601f106142d65761010080835404028352918201916142f8565b820191906000526020600020905b8154815290600101906020018083116142e4575b5050915050908152602001604051809103902060010184614ff1565b5b1561459b57600060036000600560068560ff168154811061433257fe5b9060005260206000200160405180828054600181600116156101000203166002900480156143975780601f10614375576101008083540402835291820191614397565b820191906000526020600020905b815481529060010190602001808311614383575b5050915050908152602001604051809103902060020160009054906101000a900473ffffffffffffffffffffffffffffffffffffffff1673ffffffffffffffffffffffffffffffffffffffff1673ffffffffffffffffffffffffffffffffffffffff1681526020019081526020016000209050600560068360ff168154811061441c57fe5b9060005260206000200160405180828054600181600116156101000203166002900480156144815780601f1061445f576101008083540402835291820191614481565b820191906000526020600020905b81548152906001019060200180831161446d575b50509150509081526020016040518091039020600080820160006144a5919061532c565b6001820160006144b5919061532c565b6002820160006101000a81549073ffffffffffffffffffffffffffffffffffffffff02191690556002820160146101000a81549060ff0219169055505060006001830160ff1690505b600680549050811015614569576006818154811061451857fe5b906000526020600020016006600183038154811061453257fe5b90600052602060002001908054600181600116156101000203166002900461455b929190615374565b5080806001019150506144fe565b50600680548091906001900361457f91906153fb565b5080600301600081548092919060019003919050555060019150505b80806001019150506141d1565b8091505092915050565b60008073ffffffffffffffffffffffffffffffffffffffff16600360003373ffffffffffffffffffffffffffffffffffffffff1673ffffffffffffffffffffffffffffffffffffffff16815260200190815260200160002060000160009054906101000a900473ffffffffffffffffffffffffffffffffffffffff1673ffffffffffffffffffffffffffffffffffffffff1614156146b8576040517f08c379a000000000000000000000000000000000000000000000000000000000815260040180806020018281038252601e8152602001807f596f7520617265206e6f7420726567697374657265642061732062616e6b000081525060200191505060405180910390fd5b60405180807f3000000000000000000000000000000000000000000000000000000000000000815250600101905060405180910390206001846040518082805190602001908083835b602083106147245780518252602082019150602081019050602083039250614701565b6001836020036101000a038019825116818451168082178552505050505050905001915050908152602001604051809103902060040154146147b1576040517f08c379a000000000000000000000000000000000000000000000000000000000815260040180806020018281038252605881526020018061560b6058913960600191505060405180910390fd5b81805190602001206001846040518082805190602001908083835b602083106147ef57805182526020820191506020810190506020830392506147cc565b6001836020036101000a0380198251168184511680821785525050505050509050019150509081526020016040518091039020600401819055506001905092915050565b600080600090505b600280549050811015614e09576148686002828154811061485857fe5b9060005260206000200184614ff1565b15614dfc5760006008846040518082805190602001908083835b602083106148a55780518252602082019150602081019050602083039250614882565b6001836020036101000a038019825116818451168082178552505050505050905001915050908152602001604051809103902060003373ffffffffffffffffffffffffffffffffffffffff1673ffffffffffffffffffffffffffffffffffffffff168152602001908152602001600020541461496c576040517f08c379a00000000000000000000000000000000000000000000000000000000081526004018080602001828103825260288152602001806156636028913960400191505060405180910390fd5b6001836040518082805190602001908083835b602083106149a2578051825260208201915060208101905060208303925061497f565b6001836020036101000a0380198251168184511680821785525050505050509050019150509081526020016040518091039020600201600081819054906101000a900460ff168092919060010191906101000a81548160ff021916908360ff16021790555050614a936001846040518082805190602001908083835b60208310614a415780518252602082019150602081019050602083039250614a1e565b6001836020036101000a038019825116818451168082178552505050505050905001915050908152602001604051809103902060020160009054906101000a900460ff1660ff16600480549050615295565b6001846040518082805190602001908083835b60208310614ac95780518252602082019150602081019050602083039250614aa6565b6001836020036101000a038019825116818451168082178552505050505050905001915050908152602001604051809103902060030181905550426008846040518082805190602001908083835b60208310614b3a5780518252602082019150602081019050602083039250614b17565b6001836020036101000a038019825116818451168082178552505050505050905001915050908152602001604051809103902060003373ffffffffffffffffffffffffffffffffffffffff1673ffffffffffffffffffffffffffffffffffffffff1681526020019081526020016000208190555060326001846040518082805190602001908083835b60208310614be65780518252602082019150602081019050602083039250614bc3565b6001836020036101000a0380198251168184511680821785525050505050509050019150509081526020016040518091039020600301541115614df2576001836040518082805190602001908083835b60208310614c595780518252602082019150602081019050602083039250614c36565b6001836020036101000a03801982511681845116808217855250505050505090500191505090815260200160405180910390206007846040518082805190602001908083835b60208310614cc25780518252602082019150602081019050602083039250614c9f565b6001836020036101000a038019825116818451168082178552505050505050905001915050908152602001604051809103902060008201816000019080546001816001161561010002031660029004614d1c929190615427565b5060018201816001019080546001816001161561010002031660029004614d44929190615427565b506002820160009054906101000a900460ff168160020160006101000a81548160ff021916908360ff1602179055506002820160019054906101000a900473ffffffffffffffffffffffffffffffffffffffff168160020160016101000a81548173ffffffffffffffffffffffffffffffffffffffff021916908373ffffffffffffffffffffffffffffffffffffffff16021790555060038201548160030155600482015481600401559050505b6001915050614e0f565b808060010191505061483b565b50600090505b919050565b600080600090505b600280549050811015614fc757614e4960028281548110614e3957fe5b9060005260206000200184614ff1565b15614fba576001836040518082805190602001908083835b60208310614e845780518252602082019150602081019050602083039250614e61565b6001836020036101000a038019825116818451168082178552505050505050905001915050908152602001604051809103902060008082016000614ec8919061532c565b600182016000614ed8919061532c565b6002820160006101000a81549060ff02191690556002820160016101000a81549073ffffffffffffffffffffffffffffffffffffffff021916905560038201600090556004820160009055505060006001820190505b600280549050811015614f995760028181548110614f4857fe5b9060005260206000200160026001830381548110614f6257fe5b906000526020600020019080546001816001161561010002031660029004614f8b929190615374565b508080600101915050614f2e565b506002805480919060019003614faf91906153fb565b506001915050614fcd565b8080600101915050614e1c565b50600090505b919050565b6000818054600181600116156101000203166002900490509050919050565b60008083905060608390508051828054600181600116156101000203166002900490501461502457600092505050615169565b60008090505b828054600181600116156101000203166002900490508110156151615781818151811061505357fe5b60200101517f010000000000000000000000000000000000000000000000000000000000000090047f0100000000000000000000000000000000000000000000000000000000000000027effffffffffffffffffffffffffffffffffffffffffffffffffffffffffffff191683828154600181600116156101000203166002900481106150dc57fe5b8154600116156150fb5790600052602060002090602091828204019190065b9054901a7f0100000000000000000000000000000000000000000000000000000000000000027effffffffffffffffffffffffffffffffffffffffffffffffffffffffffffff1916146151545760009350505050615169565b808060010191505061502a565b506001925050505b92915050565b6000806000602085805460018160011615610100020316600290049050116151ac57848054600181600116156101000203166002900490506151af565b60205b905060008090505b81811015615289576008810260ff7f0100000000000000000000000000000000000000000000000000000000000000028783880181546001816001161561010002031660029004811061520657fe5b8154600116156152255790600052602060002090602091828204019190065b9054901a7f010000000000000000000000000000000000000000000000000000000000000002167effffffffffffffffffffffffffffffffffffffffffffffffffffffffffffff1916908060020a82049150508317925080806001019150506151b7565b50819250505092915050565b60008183606402816152a357fe5b04905092915050565b828054600181600116156101000203166002900490600052602060002090601f016020900481019282601f106152ed57805160ff191683800117855561531b565b8280016001018555821561531b579182015b8281111561531a5782518255916020019190600101906152ff565b5b50905061532891906154ae565b5090565b50805460018160011615610100020316600290046000825580601f106153525750615371565b601f01602090049060005260206000209081019061537091906154ae565b5b50565b828054600181600116156101000203166002900490600052602060002090601f016020900481019282601f106153ad57805485556153ea565b828001600101855582156153ea57600052602060002091601f016020900482015b828111156153e95782548255916001019190600101906153ce565b5b5090506153f791906154ae565b5090565b8154818355818111156154225781836000526020600020918201910161542191906154d3565b5b505050565b828054600181600116156101000203166002900490600052602060002090601f016020900481019282601f10615460578054855561549d565b8280016001018555821561549d57600052602060002091601f016020900482015b8281111561549c578254825591600101919060010190615481565b5b5090506154aa91906154ae565b5090565b6154d091905b808211156154cc5760008160009055506001016154b4565b5090565b90565b6154fc91905b808211156154f857600081816154ef919061532c565b506001016154d9565b5090565b9056fe4b5943205265717565737420666f72207468697320437573746f6d657220646f65736e6f7420657869737450617373776f726420697320696e636f72726563742e20506173732027302720696620637573746f6d657220686173206e6f2070617373776f7264437573746f6d657220796f75207175657269656420666f7220646f6573206e6f742065786973742e42616e6b20796f75207175657269656420666f72206973206e6f7420726567697374657265642e5468697320637573746f6d657220697320616c72656164792070726573656e742c20706c656173652063616c6c206d6f64696679437573746f6d657220746f20656469742074686520637573746f6d65722064617461437573746f6d657220697320616c72656164792070726f7465637465642062792070617373776f72642e20557365206d6f64696679437573746f6d657250617373776f726420746f207570646174652070617373776f7264596f75206861766520616c726561647920766f74656420666f72207468697320637573746f6d65725468652042616e6b20796f752061726520747279696e6720746f20766f746520666f72206973206e6f74207265676973746572656444656e6965642e2054686973204b5943206973206e6f742072657175657374656420627920616c6c6f7765642062616e6b2e54686973207573657220616c7265616479206861732061204b5943207265717565737420776974682073616d65206461746120696e2070726f636573732ea265627a7a7230582042614e766607d5264d0bdd37b06ab83b224b691745140cce3e429044338c3cc564736f6c63430005090032",
  "source": "pragma solidity ^0.5.9;\r\nimport \"./Types.sol\";\r\nimport \"./DataStorage.sol\";\r\nimport \"./Helpers.sol\";\r\nimport \"./AccessControl.sol\";\r\n\r\ncontract BankHandler is Types,DataStorage,Helpers,AccessControl{\r\n    constructor() public{}\r\n    \r\n    /**\r\n     * Record a new KYC request on behalf of a customer\r\n     * The sender of message call is the bank itself\r\n     * @param  {string} _userName The name of the customer for whom KYC is to be done\r\n     * @param  {address} _bankEthAddress The ethAddress of the bank issuing this request\r\n     * @return {bool}        True if this function execution was successful\r\n     */\r\n    function addKycRequest(string memory _userName, string memory _customerData) onlyBank public returns (uint8) {\r\n        // Check that the user's KYC has not been done before, the Bank is a valid bank and it is allowed to perform KYC.\r\n        require(kycRequests[_customerData].bank == address(0), \"This user already has a KYC request with same data in process.\");\r\n        kycRequests[_customerData].data_hash = _customerData;\r\n        kycRequests[_customerData].userName = _userName;\r\n        kycRequests[_customerData].bank = msg.sender;\r\n        banks[msg.sender].KYC_count++; //Update the KYC_count so that it can be used in getBankRequests for allocation array sizes.\r\n        if(banks[msg.sender].rating <= 50)\r\n            kycRequests[_customerData].isAllowed = false;\r\n        else\r\n            kycRequests[_customerData].isAllowed = true;\r\n        customerDataList.push(_customerData);\r\n        return 1;\r\n    }\r\n    \r\n    /**\r\n     * Gets the list of each fields of kyc requests filtered for a bankAddress.\r\n     * @param {string} bankAddress\r\n     * returns tuple with n lists where n corresponds to fields of KYC_Request struct. Each of the list are assosicated accross each other with index\r\n     */\r\n    function getBankRequests(address bankAddress) public view returns(address[] memory, bytes32[] memory, bytes32[] memory, bool[] memory ){\r\n        Bank storage bank = banks[bankAddress]; // Just a pointer to actual storage. So no gas spent.\r\n        address[] memory addresses = new address[](bank.KYC_count); // Only allocate memory with the KYC_count value of the bank.\r\n        bytes32[] memory usernames = new bytes32[](bank.KYC_count);\r\n        bytes32[] memory dataHashes = new bytes32[](bank.KYC_count);\r\n        bool[] memory isAlloweds = new bool[](bank.KYC_count);\r\n        uint filteredKYC_Count = 0;\r\n        for(uint i=0; i<customerDataList.length; i++){\r\n            if(kycRequests[customerDataList[i]].bank == bankAddress){\r\n             addresses[filteredKYC_Count] = bankAddress ;\r\n             usernames[filteredKYC_Count] = bytesToBytes32(bytes(kycRequests[customerDataList[i]].userName),0);\r\n             isAlloweds[filteredKYC_Count] = kycRequests[customerDataList[i]].isAllowed;\r\n             dataHashes[filteredKYC_Count] = bytesToBytes32(bytes(kycRequests[customerDataList[i]].data_hash),0);\r\n             filteredKYC_Count++;\r\n            }\r\n        }\r\n        return (addresses, usernames,dataHashes, isAlloweds);\r\n    }\r\n\r\n    /**\r\n     * Add a new customer\r\n     * @param {string} _userName Name of the customer to be added\r\n     * @param {string} _hash Hash of the customer's ID submitted for KYC\r\n     */\r\n    function addCustomer(string memory _userName, string memory _customerData) onlyBank onlyKYCExists(_userName,_customerData) onlyAllowedBanksKYC(_customerData) public returns (uint8) {\r\n        require(customers[_userName].bank == address(0), \"This customer is already present, please call modifyCustomer to edit the customer data\");\r\n        customers[_userName].userName = _userName;\r\n        customers[_userName].data_hash = _customerData;\r\n        customers[_userName].bank = msg.sender;\r\n        customers[_userName].upvotes = 0;\r\n        customers[_userName].password = keccak256(\"0\");\r\n        customerNames.push(_userName);\r\n        removeKYCRequest(_userName, _customerData); // Remove the related kyc request after creating cutomer.\r\n        return 1;\r\n    }\r\n\r\n    /**\r\n     * Remove KYC request from kycRequests mapping and remove kyc data hash from customerDataList\r\n     * @param  {string} _userName Name of the customer\r\n     * @return {uint8} A 0 indicates failure, 1 indicates success\r\n     */\r\n    function removeKYCRequest(string memory _userName, string memory customerData) public returns (uint8) {\r\n        uint8 i=0;\r\n        for (i = 0; i< customerDataList.length; i++) {\r\n            if (stringsEquals(kycRequests[customerDataList[i]].userName,_userName)\r\n                && stringsEquals(kycRequests[customerDataList[i]].data_hash , customerData)) {\r\n                Bank storage bank = banks[kycRequests[customerDataList[i]].bank];\r\n                delete kycRequests[customerDataList[i]];\r\n                for(uint j = i+1;j < customerDataList.length;j++){\r\n                    customerDataList[j-1] = customerDataList[j];\r\n                }\r\n                customerDataList.length --;\r\n                bank.KYC_count--;\r\n                i=1;\r\n            }\r\n        }\r\n        return i; // 0 is returned if no request with the input username is found.\r\n    }\r\n\r\n    /**\r\n     * Remove customer from customer mapping and remove customer name from customerNames\r\n     * @param  {string} _userName Name of the customer\r\n     * @return {uint8} A 0 indicates failure, 1 indicates success\r\n     */\r\n    function removeCustomer(string memory _userName) public returns (uint8) {\r\n        for(uint i = 0;i < customerNames.length;i++)\r\n        {\r\n            if(stringsEquals(customerNames[i],_userName))\r\n            {\r\n                delete customers[_userName];\r\n                for(uint j = i+1;j < customerNames.length;j++)\r\n                {\r\n                    customerNames[j-1] = customerNames[j];\r\n                }\r\n                customerNames.length--;\r\n                return 1;\r\n            }\r\n        }\r\n        return 0;\r\n    }\r\n\r\n    /**\r\n     * Edit customer information\r\n     * @param  {string} _userName Name of the customer\r\n     * @param  {string} _hash New hash of the updated ID provided by the customer\r\n     * @param  {string} password password of the customer or '0' if no password is set\r\n     * @return {uint8} A 0 indicates failure, 1 indicates success\r\n     */\r\n    function modifyCustomer(string memory _userName, string memory _newcustomerData, string memory password) public  authenticated(_userName,password) returns (uint8) {\r\n        for(uint i = 0;i < customerNames.length;i++)\r\n            {\r\n                if(stringsEquals(customerNames[i],_userName))\r\n                {\r\n                    if( stringsEquals(finalCustomers[_userName].userName,_userName)) // If customer found in final customer list remove it\r\n                        delete finalCustomers[_userName];\r\n                    customers[_userName].data_hash = _newcustomerData;\r\n                    customers[_userName].userName = _userName;\r\n                    customers[_userName].upvotes = 0; // set upvote and rating to 0\r\n                    customers[_userName].rating = 0;\r\n                    customers[_userName].bank = msg.sender;\r\n                    return 1;\r\n                }\r\n            }\r\n            return 0;\r\n    }\r\n\r\n    /**\r\n     * View customer information\r\n     * @param  {string} _userName Name of the customer\r\n     * @return {Customer} The customer struct as an object\r\n     */\r\n    function viewCustomer(string memory _userName, string memory password) public authenticated(_userName,password) view returns (string memory, string memory, uint8, address) {\r\n        //if passes authenticated modfier returns customer data\r\n        return (customers[_userName].userName, customers[_userName].data_hash, customers[_userName].upvotes, customers[_userName].bank);\r\n    }\r\n\r\n    /**\r\n     * Add a new upvote from a bank to a customer\r\n     * @param {string} _userName Name of the customer to be upvoted\r\n     */\r\n    function upvoteCustomer(string memory _userName) public returns (uint8) {\r\n        for(uint i = 0;i < customerNames.length;i++)\r\n            {\r\n                if(stringsEquals(customerNames[i],_userName))\r\n                {\r\n                    if(upvotes[_userName][msg.sender]!=0) //Donot allow upvote if bank already upvoted.\r\n                        revert(\"You have already voted for this customer\");\r\n                    customers[_userName].upvotes++;\r\n                    customers[_userName].rating  =  calcPercentage(customers[_userName].upvotes, bankAddresses.length); // Store raing as percentage\r\n                    upvotes[_userName][msg.sender] = now;//storing the timestamp when vote was casted, not required though, additional\r\n                    if(customers[_userName].rating > 50)\r\n                        finalCustomers[_userName] = customers[_userName]; // add to final customer list\r\n                    return 1;\r\n                }\r\n            }\r\n            return 0;\r\n    }\r\n\r\n     /**\r\n     * Add a new upvote from a bank to another bank. caller should be a bank.\r\n     * @param {address} bankAddress Address of the bank to be upvoted\r\n     */\r\n    function upVoteBank(address bankAddress) public onlyBank returns (uint8){\r\n        require(bankAddress != msg.sender, \"You cannot vote yourself\"); // A bank cannot vote itself\r\n        require(banks[bankAddress].ethAddress != address(0), \"The Bank you are trying to vote for is not registered\");\r\n        if(bankUpvotes[bankAddress][msg.sender] != 0) // Dont allow vote if already voted\r\n            revert(\"You have already voted for this customer\");\r\n        banks[bankAddress].upvotes++;\r\n        banks[bankAddress].rating = calcPercentage(banks[bankAddress].upvotes, bankAddresses.length); // Calcullate bank rating\r\n        bankUpvotes[bankAddress][msg.sender]=now;\r\n        return 1;\r\n    }\r\n\r\n    /**\r\n     * Get bank details as tuple\r\n     * @param {address} bankAddress Address of the bank to get the details\r\n     */\r\n    function getBankDetails(address bankAddress) public view  returns(address , string memory,string memory, uint256, uint256,uint8){\r\n        require(banks[bankAddress].ethAddress != address(0) , \"Bank you queried for is not registered.\");\r\n        return (banks[bankAddress].ethAddress,banks[bankAddress].bankName,banks[bankAddress].regNumber,banks[bankAddress].KYC_count,banks[bankAddress].rating,banks[bankAddress].upvotes);\r\n    }\r\n\r\n    /**\r\n     * Get bank's rating\r\n     * @param {address} bankAddress Address of the bank to get the rating\r\n     */\r\n    function getBankRating(address bankAddress) public view returns (uint256){\r\n        require(banks[bankAddress].ethAddress != address(0) , \"Bank you queried for is not registered.\");\r\n        return banks[bankAddress].rating;\r\n    }\r\n\r\n    /**\r\n     * Get customer's rating\r\n     * @param {string} username customer's username\r\n     */\r\n    function getCustomerRating(string memory username) public view returns (uint256){\r\n         for(uint i = 0;i < customerNames.length;i++)\r\n            {\r\n                if(stringsEquals(customerNames[i],username))\r\n                {\r\n                        return customers[username].rating;\r\n                }\r\n            }\r\n        revert(\"Customer you queried for does not exist.\");\r\n    }\r\n\r\n    /**\r\n     * Get the last bank which validated the cutomer data\r\n     * @param {string} username customer's username\r\n     */\r\n    function getAccessHistory(string memory username) public view returns(address , string memory,string memory, uint256, uint256,uint8){\r\n        return getBankDetails( customers[username].bank); // Customer.bank always hold the bank which updated it last. Customer in customers list is always validated.\r\n    }\r\n    \r\n    /**\r\n     * Set password to protect customer data\r\n     * @param {string} username customer's username\r\n     * @param {string} password password\r\n     */\r\n    function setCustomerPassword(string memory username, string memory password) public onlyBank returns(uint8){\r\n        require(customers[username].password == keccak256(\"0\"), \"Customer is already protected by password. Use modifyCustomerPassword to update password\");\r\n        customers[username].password = keccak256(bytes(password)); // hash the password with keccak256 which is bytes32\r\n        return 1;\r\n    }\r\n    \r\n    /**\r\n     * Modify the password of the customer whos has an existing password\r\n     * @param {string} username customer's username and password\r\n     * @param {string} currentPassword existing password\r\n     * @param {string} newPassword new password to set\r\n     */\r\n    function modifyCustomerPassword(string memory username, string memory currentPassword, string memory newPassword) public onlyBank authenticated(username,currentPassword) returns(uint8){\r\n        customers[username].password = keccak256(bytes(newPassword));\r\n        return 1;\r\n    }\r\n}\r\n",
  "sourcePath": "C:\\Users\\HP\\Documents\\Fiddle\\KYC_Eth\\contracts\\BankHandler.sol",
  "compiler": {
    "name": "solc",
    "version": "0.5.9+commit.e560f70d.Emscripten.clang"
  },
  "schemaVersion": "3.0.20",
  "updatedAt": "2020-01-06T18:21:04.831Z",
  "devdoc": {
    "methods": {
      "addCustomer(string,string)": {
        "params": {
          "": "{string} _hash Hash of the customer's ID submitted for KYC\r"
        }
      },
      "addKycRequest(string,string)": {
        "params": {
          "": "{address} _bankEthAddress The ethAddress of the bank issuing this request\r"
        },
        "return": "{bool}        True if this function execution was successful\r"
      },
      "getAccessHistory(string)": {
        "params": {
          "": "{string} username customer's username\r"
        }
      },
      "getBankDetails(address)": {
        "params": {
          "": "{address} bankAddress Address of the bank to get the details\r"
        }
      },
      "getBankRating(address)": {
        "params": {
          "": "{address} bankAddress Address of the bank to get the rating\r"
        }
      },
      "getBankRequests(address)": {
        "params": {
          "": "{string} bankAddress\r returns tuple with n lists where n corresponds to fields of KYC_Request struct. Each of the list are assosicated accross each other with index\r"
        }
      },
      "getCustomerRating(string)": {
        "params": {
          "": "{string} username customer's username\r"
        }
      },
      "modifyCustomer(string,string,string)": {
        "params": {
          "": "{string} password password of the customer or '0' if no password is set\r"
        },
        "return": "{uint8} A 0 indicates failure, 1 indicates success\r"
      },
      "modifyCustomerPassword(string,string,string)": {
        "params": {
          "": "{string} newPassword new password to set\r"
        }
      },
      "removeCustomer(string)": {
        "params": {
          "": "{string} _userName Name of the customer\r"
        },
        "return": "{uint8} A 0 indicates failure, 1 indicates success\r"
      },
      "removeKYCRequest(string,string)": {
        "params": {
          "": "{string} _userName Name of the customer\r"
        },
        "return": "{uint8} A 0 indicates failure, 1 indicates success\r"
      },
      "setCustomerPassword(string,string)": {
        "params": {
          "": "{string} password password\r"
        }
      },
      "upVoteBank(address)": {
        "params": {
          "": "{address} bankAddress Address of the bank to be upvoted\r"
        }
      },
      "upvoteCustomer(string)": {
        "params": {
          "": "{string} _userName Name of the customer to be upvoted\r"
        }
      },
      "viewCustomer(string,string)": {
        "params": {
          "": "{string} _userName Name of the customer\r"
        },
        "return": "{Customer} The customer struct as an object\r"
      }
    }
  },
  "userdoc": {
    "methods": {
      "addCustomer(string,string)": {
        "notice": "Add a new customer\r"
      },
      "addKycRequest(string,string)": {
        "notice": "Record a new KYC request on behalf of a customer\r The sender of message call is the bank itself\r"
      },
      "getAccessHistory(string)": {
        "notice": "Get the last bank which validated the cutomer data\r"
      },
      "getBankDetails(address)": {
        "notice": "Get bank details as tuple\r"
      },
      "getBankRating(address)": {
        "notice": "Get bank's rating\r"
      },
      "getBankRequests(address)": {
        "notice": "Gets the list of each fields of kyc requests filtered for a bankAddress.\r"
      },
      "getCustomerRating(string)": {
        "notice": "Get customer's rating\r"
      },
      "modifyCustomer(string,string,string)": {
        "notice": "Edit customer information\r"
      },
      "modifyCustomerPassword(string,string,string)": {
        "notice": "Modify the password of the customer whos has an existing password\r"
      },
      "removeCustomer(string)": {
        "notice": "Remove customer from customer mapping and remove customer name from customerNames\r"
      },
      "removeKYCRequest(string,string)": {
        "notice": "Remove KYC request from kycRequests mapping and remove kyc data hash from customerDataList\r"
      },
      "setCustomerPassword(string,string)": {
        "notice": "Set password to protect customer data\r"
      },
      "upVoteBank(address)": {
        "notice": "Add a new upvote from a bank to another bank. caller should be a bank.\r"
      },
      "upvoteCustomer(string)": {
        "notice": "Add a new upvote from a bank to a customer\r"
      },
      "viewCustomer(string,string)": {
        "notice": "View customer information\r"
      }
    }
  }
}