{
  "contractName": "KYC",
  "abi": [
    {
      "constant": true,
      "inputs": [
        {
          "name": "bankAddress",
          "type": "address"
        }
      ],
      "name": "getBankDetails",
      "outputs": [
        {
          "name": "",
          "type": "address"
        },
        {
          "name": "",
          "type": "string"
        },
        {
          "name": "",
          "type": "string"
        },
        {
          "name": "",
          "type": "uint256"
        },
        {
          "name": "",
          "type": "uint256"
        },
        {
          "name": "",
          "type": "uint8"
        }
      ],
      "payable": false,
      "stateMutability": "view",
      "type": "function"
    },
    {
      "constant": true,
      "inputs": [
        {
          "name": "_userName",
          "type": "string"
        },
        {
          "name": "password",
          "type": "string"
        }
      ],
      "name": "viewCustomer",
      "outputs": [
        {
          "name": "",
          "type": "string"
        },
        {
          "name": "",
          "type": "string"
        },
        {
          "name": "",
          "type": "uint8"
        },
        {
          "name": "",
          "type": "address"
        }
      ],
      "payable": false,
      "stateMutability": "view",
      "type": "function"
    },
    {
      "constant": false,
      "inputs": [
        {
          "name": "_userName",
          "type": "string"
        },
        {
          "name": "_customerData",
          "type": "string"
        }
      ],
      "name": "addCustomer",
      "outputs": [
        {
          "name": "",
          "type": "uint8"
        }
      ],
      "payable": false,
      "stateMutability": "nonpayable",
      "type": "function"
    },
    {
      "constant": false,
      "inputs": [
        {
          "name": "bankName",
          "type": "string"
        },
        {
          "name": "regNumber",
          "type": "string"
        },
        {
          "name": "ethAddress",
          "type": "address"
        }
      ],
      "name": "addBank",
      "outputs": [
        {
          "name": "",
          "type": "uint8"
        }
      ],
      "payable": false,
      "stateMutability": "nonpayable",
      "type": "function"
    },
    {
      "constant": true,
      "inputs": [
        {
          "name": "bankAddress",
          "type": "address"
        }
      ],
      "name": "getBankRequests",
      "outputs": [
        {
          "name": "",
          "type": "address[]"
        },
        {
          "name": "",
          "type": "bytes32[]"
        },
        {
          "name": "",
          "type": "bytes32[]"
        },
        {
          "name": "",
          "type": "bool[]"
        }
      ],
      "payable": false,
      "stateMutability": "view",
      "type": "function"
    },
    {
      "constant": true,
      "inputs": [
        {
          "name": "username",
          "type": "string"
        }
      ],
      "name": "getAccessHistory",
      "outputs": [
        {
          "name": "",
          "type": "address"
        },
        {
          "name": "",
          "type": "string"
        },
        {
          "name": "",
          "type": "string"
        },
        {
          "name": "",
          "type": "uint256"
        },
        {
          "name": "",
          "type": "uint256"
        },
        {
          "name": "",
          "type": "uint8"
        }
      ],
      "payable": false,
      "stateMutability": "view",
      "type": "function"
    },
    {
      "constant": true,
      "inputs": [
        {
          "name": "username",
          "type": "string"
        }
      ],
      "name": "getCustomerRating",
      "outputs": [
        {
          "name": "",
          "type": "uint256"
        }
      ],
      "payable": false,
      "stateMutability": "view",
      "type": "function"
    },
    {
      "constant": false,
      "inputs": [
        {
          "name": "bankAddress",
          "type": "address"
        }
      ],
      "name": "removeBank",
      "outputs": [
        {
          "name": "",
          "type": "uint8"
        }
      ],
      "payable": false,
      "stateMutability": "nonpayable",
      "type": "function"
    },
    {
      "constant": false,
      "inputs": [
        {
          "name": "_userName",
          "type": "string"
        },
        {
          "name": "_newcustomerData",
          "type": "string"
        },
        {
          "name": "password",
          "type": "string"
        }
      ],
      "name": "modifyCustomer",
      "outputs": [
        {
          "name": "",
          "type": "uint8"
        }
      ],
      "payable": false,
      "stateMutability": "nonpayable",
      "type": "function"
    },
    {
      "constant": false,
      "inputs": [
        {
          "name": "username",
          "type": "string"
        },
        {
          "name": "currentPassword",
          "type": "string"
        },
        {
          "name": "newPassword",
          "type": "string"
        }
      ],
      "name": "modifyCustomerPassword",
      "outputs": [
        {
          "name": "",
          "type": "uint8"
        }
      ],
      "payable": false,
      "stateMutability": "nonpayable",
      "type": "function"
    },
    {
      "constant": true,
      "inputs": [
        {
          "name": "bankAddress",
          "type": "address"
        }
      ],
      "name": "getBankRating",
      "outputs": [
        {
          "name": "",
          "type": "uint256"
        }
      ],
      "payable": false,
      "stateMutability": "view",
      "type": "function"
    },
    {
      "constant": false,
      "inputs": [
        {
          "name": "bankAddress",
          "type": "address"
        }
      ],
      "name": "upVoteBank",
      "outputs": [
        {
          "name": "",
          "type": "uint8"
        }
      ],
      "payable": false,
      "stateMutability": "nonpayable",
      "type": "function"
    },
    {
      "constant": false,
      "inputs": [
        {
          "name": "_userName",
          "type": "string"
        },
        {
          "name": "_customerData",
          "type": "string"
        }
      ],
      "name": "addKycRequest",
      "outputs": [
        {
          "name": "",
          "type": "uint8"
        }
      ],
      "payable": false,
      "stateMutability": "nonpayable",
      "type": "function"
    },
    {
      "constant": false,
      "inputs": [
        {
          "name": "_userName",
          "type": "string"
        },
        {
          "name": "customerData",
          "type": "string"
        }
      ],
      "name": "removeKYCRequest",
      "outputs": [
        {
          "name": "",
          "type": "uint8"
        }
      ],
      "payable": false,
      "stateMutability": "nonpayable",
      "type": "function"
    },
    {
      "constant": false,
      "inputs": [
        {
          "name": "username",
          "type": "string"
        },
        {
          "name": "password",
          "type": "string"
        }
      ],
      "name": "setCustomerPassword",
      "outputs": [
        {
          "name": "",
          "type": "uint8"
        }
      ],
      "payable": false,
      "stateMutability": "nonpayable",
      "type": "function"
    },
    {
      "constant": false,
      "inputs": [
        {
          "name": "_userName",
          "type": "string"
        }
      ],
      "name": "upvoteCustomer",
      "outputs": [
        {
          "name": "",
          "type": "uint8"
        }
      ],
      "payable": false,
      "stateMutability": "nonpayable",
      "type": "function"
    },
    {
      "constant": false,
      "inputs": [
        {
          "name": "_userName",
          "type": "string"
        }
      ],
      "name": "removeCustomer",
      "outputs": [
        {
          "name": "",
          "type": "uint8"
        }
      ],
      "payable": false,
      "stateMutability": "nonpayable",
      "type": "function"
    },
    {
      "inputs": [],
      "payable": false,
      "stateMutability": "nonpayable",
      "type": "constructor"
    }
  ],
  "bytecode": "0x608060405234801561001057600080fd5b50336000806101000a81548173ffffffffffffffffffffffffffffffffffffffff021916908373ffffffffffffffffffffffffffffffffffffffff1602179055506160e580620000616000396000f3fe608060405234801561001057600080fd5b5060043610610128576000357c010000000000000000000000000000000000000000000000000000000090048063a18dce7b116100bf578063d4a46c511161008e578063d4a46c511461115b578063dc4009a4146112c7578063def1211514611433578063f2f4ed8f1461159f578063fc55ea9d1461167457610128565b8063a18dce7b14610c9f578063b67137d014610ea2578063b8144a72146110a5578063ccb6b0d2146110fd57610128565b8063628e09ad116100fb578063628e09ad146108135780638117eada146109845780638eafe0f014610b725780639649650c14610c4157610128565b806315101e021461012d5780631f2c141a146102a45780633190abc01461051b57806347f8868914610687575b600080fd5b61016f6004803603602081101561014357600080fd5b81019080803573ffffffffffffffffffffffffffffffffffffffff169060200190929190505050611749565b604051808773ffffffffffffffffffffffffffffffffffffffff1673ffffffffffffffffffffffffffffffffffffffff16815260200180602001806020018681526020018581526020018460ff1660ff168152602001838103835288818151815260200191508051906020019080838360005b838110156101fd5780820151818401526020810190506101e2565b50505050905090810190601f16801561022a5780820380516001836020036101000a031916815260200191505b50838103825287818151815260200191508051906020019080838360005b83811015610263578082015181840152602081019050610248565b50505050905090810190601f1680156102905780820380516001836020036101000a031916815260200191505b509850505050505050505060405180910390f35b6103f4600480360360408110156102ba57600080fd5b81019080803590602001906401000000008111156102d757600080fd5b8201836020820111156102e957600080fd5b8035906020019184600183028401116401000000008311171561030b57600080fd5b91908080601f016020809104026020016040519081016040528093929190818152602001838380828437600081840152601f19601f8201169050808301925050505050505091929192908035906020019064010000000081111561036e57600080fd5b82018360208201111561038057600080fd5b803590602001918460018302840111640100000000831117156103a257600080fd5b91908080601f016020809104026020016040519081016040528093929190818152602001838380828437600081840152601f19601f820116905080830192505050505050509192919290505050611b44565b6040518080602001806020018560ff1660ff1681526020018473ffffffffffffffffffffffffffffffffffffffff1673ffffffffffffffffffffffffffffffffffffffff168152602001838103835287818151815260200191508051906020019080838360005b8381101561047657808201518184015260208101905061045b565b50505050905090810190601f1680156104a35780820380516001836020036101000a031916815260200191505b50838103825286818151815260200191508051906020019080838360005b838110156104dc5780820151818401526020810190506104c1565b50505050905090810190601f1680156105095780820380516001836020036101000a031916815260200191505b50965050505050505060405180910390f35b61066b6004803603604081101561053157600080fd5b810190808035906020019064010000000081111561054e57600080fd5b82018360208201111561056057600080fd5b8035906020019184600183028401116401000000008311171561058257600080fd5b91908080601f016020809104026020016040519081016040528093929190818152602001838380828437600081840152601f19601f820116905080830192505050505050509192919290803590602001906401000000008111156105e557600080fd5b8201836020820111156105f757600080fd5b8035906020019184600183028401116401000000008311171561061957600080fd5b91908080601f016020809104026020016040519081016040528093929190818152602001838380828437600081840152601f19601f820116905080830192505050505050509192919290505050612031565b604051808260ff1660ff16815260200191505060405180910390f35b6107f76004803603606081101561069d57600080fd5b81019080803590602001906401000000008111156106ba57600080fd5b8201836020820111156106cc57600080fd5b803590602001918460018302840111640100000000831117156106ee57600080fd5b91908080601f016020809104026020016040519081016040528093929190818152602001838380828437600081840152601f19601f8201169050808301925050505050505091929192908035906020019064010000000081111561075157600080fd5b82018360208201111561076357600080fd5b8035906020019184600183028401116401000000008311171561078557600080fd5b91908080601f016020809104026020016040519081016040528093929190818152602001838380828437600081840152601f19601f820116905080830192505050505050509192919290803573ffffffffffffffffffffffffffffffffffffffff16906020019092919050505061280a565b604051808260ff1660ff16815260200191505060405180910390f35b6108556004803603602081101561082957600080fd5b81019080803573ffffffffffffffffffffffffffffffffffffffff169060200190929190505050612be5565b6040518080602001806020018060200180602001858103855289818151815260200191508051906020019060200280838360005b838110156108a4578082015181840152602081019050610889565b50505050905001858103845288818151815260200191508051906020019060200280838360005b838110156108e65780820151818401526020810190506108cb565b50505050905001858103835287818151815260200191508051906020019060200280838360005b8381101561092857808201518184015260208101905061090d565b50505050905001858103825286818151815260200191508051906020019060200280838360005b8381101561096a57808201518184015260208101905061094f565b505050509050019850505050505050505060405180910390f35b610a3d6004803603602081101561099a57600080fd5b81019080803590602001906401000000008111156109b757600080fd5b8201836020820111156109c957600080fd5b803590602001918460018302840111640100000000831117156109eb57600080fd5b91908080601f016020809104026020016040519081016040528093929190818152602001838380828437600081840152601f19601f820116905080830192505050505050509192919290505050613089565b604051808773ffffffffffffffffffffffffffffffffffffffff1673ffffffffffffffffffffffffffffffffffffffff16815260200180602001806020018681526020018581526020018460ff1660ff168152602001838103835288818151815260200191508051906020019080838360005b83811015610acb578082015181840152602081019050610ab0565b50505050905090810190601f168015610af85780820380516001836020036101000a031916815260200191505b50838103825287818151815260200191508051906020019080838360005b83811015610b31578082015181840152602081019050610b16565b50505050905090810190601f168015610b5e5780820380516001836020036101000a031916815260200191505b509850505050505050505060405180910390f35b610c2b60048036036020811015610b8857600080fd5b8101908080359060200190640100000000811115610ba557600080fd5b820183602082011115610bb757600080fd5b80359060200191846001830284011164010000000083111715610bd957600080fd5b91908080601f016020809104026020016040519081016040528093929190818152602001838380828437600081840152601f19601f82011690508083019250505050505050919291929050505061313d565b6040518082815260200191505060405180910390f35b610c8360048036036020811015610c5757600080fd5b81019080803573ffffffffffffffffffffffffffffffffffffffff169060200190929190505050613250565b604051808260ff1660ff16815260200191505060405180910390f35b610e8660048036036060811015610cb557600080fd5b8101908080359060200190640100000000811115610cd257600080fd5b820183602082011115610ce457600080fd5b80359060200191846001830284011164010000000083111715610d0657600080fd5b91908080601f016020809104026020016040519081016040528093929190818152602001838380828437600081840152601f19601f82011690508083019250505050505050919291929080359060200190640100000000811115610d6957600080fd5b820183602082011115610d7b57600080fd5b80359060200191846001830284011164010000000083111715610d9d57600080fd5b91908080601f016020809104026020016040519081016040528093929190818152602001838380828437600081840152601f19601f82011690508083019250505050505050919291929080359060200190640100000000811115610e0057600080fd5b820183602082011115610e1257600080fd5b80359060200191846001830284011164010000000083111715610e3457600080fd5b91908080601f016020809104026020016040519081016040528093929190818152602001838380828437600081840152601f19601f82011690508083019250505050505050919291929050505061359d565b604051808260ff1660ff16815260200191505060405180910390f35b61108960048036036060811015610eb857600080fd5b8101908080359060200190640100000000811115610ed557600080fd5b820183602082011115610ee757600080fd5b80359060200191846001830284011164010000000083111715610f0957600080fd5b91908080601f016020809104026020016040519081016040528093929190818152602001838380828437600081840152601f19601f82011690508083019250505050505050919291929080359060200190640100000000811115610f6c57600080fd5b820183602082011115610f7e57600080fd5b80359060200191846001830284011164010000000083111715610fa057600080fd5b91908080601f016020809104026020016040519081016040528093929190818152602001838380828437600081840152601f19601f8201169050808301925050505050505091929192908035906020019064010000000081111561100357600080fd5b82018360208201111561101557600080fd5b8035906020019184600183028401116401000000008311171561103757600080fd5b91908080601f016020809104026020016040519081016040528093929190818152602001838380828437600081840152601f19601f820116905080830192505050505050509192919290505050613bb1565b604051808260ff1660ff16815260200191505060405180910390f35b6110e7600480360360208110156110bb57600080fd5b81019080803573ffffffffffffffffffffffffffffffffffffffff169060200190929190505050613ef9565b6040518082815260200191505060405180910390f35b61113f6004803603602081101561111357600080fd5b81019080803573ffffffffffffffffffffffffffffffffffffffff16906020019092919050505061402c565b604051808260ff1660ff16815260200191505060405180910390f35b6112ab6004803603604081101561117157600080fd5b810190808035906020019064010000000081111561118e57600080fd5b8201836020820111156111a057600080fd5b803590602001918460018302840111640100000000831117156111c257600080fd5b91908080601f016020809104026020016040519081016040528093929190818152602001838380828437600081840152601f19601f8201169050808301925050505050505091929192908035906020019064010000000081111561122557600080fd5b82018360208201111561123757600080fd5b8035906020019184600183028401116401000000008311171561125957600080fd5b91908080601f016020809104026020016040519081016040528093929190818152602001838380828437600081840152601f19601f820116905080830192505050505050509192919290505050614534565b604051808260ff1660ff16815260200191505060405180910390f35b611417600480360360408110156112dd57600080fd5b81019080803590602001906401000000008111156112fa57600080fd5b82018360208201111561130c57600080fd5b8035906020019184600183028401116401000000008311171561132e57600080fd5b91908080601f016020809104026020016040519081016040528093929190818152602001838380828437600081840152601f19601f8201169050808301925050505050505091929192908035906020019064010000000081111561139157600080fd5b8201836020820111156113a357600080fd5b803590602001918460018302840111640100000000831117156113c557600080fd5b91908080601f016020809104026020016040519081016040528093929190818152602001838380828437600081840152601f19601f820116905080830192505050505050509192919290505050614aed565b604051808260ff1660ff16815260200191505060405180910390f35b6115836004803603604081101561144957600080fd5b810190808035906020019064010000000081111561146657600080fd5b82018360208201111561147857600080fd5b8035906020019184600183028401116401000000008311171561149a57600080fd5b91908080601f016020809104026020016040519081016040528093929190818152602001838380828437600081840152601f19601f820116905080830192505050505050509192919290803590602001906401000000008111156114fd57600080fd5b82018360208201111561150f57600080fd5b8035906020019184600183028401116401000000008311171561153157600080fd5b91908080601f016020809104026020016040519081016040528093929190818152602001838380828437600081840152601f19601f820116905080830192505050505050509192919290505050614eda565b604051808260ff1660ff16815260200191505060405180910390f35b611658600480360360208110156115b557600080fd5b81019080803590602001906401000000008111156115d257600080fd5b8201836020820111156115e457600080fd5b8035906020019184600183028401116401000000008311171561160657600080fd5b91908080601f016020809104026020016040519081016040528093929190818152602001838380828437600081840152601f19601f82011690508083019250505050505050919291929050505061515b565b604051808260ff1660ff16815260200191505060405180910390f35b61172d6004803603602081101561168a57600080fd5b81019080803590602001906401000000008111156116a757600080fd5b8201836020820111156116b957600080fd5b803590602001918460018302840111640100000000831117156116db57600080fd5b91908080601f016020809104026020016040519081016040528093929190818152602001838380828437600081840152601f19601f82011690508083019250505050505050919291929050505061573c565b604051808260ff1660ff16815260200191505060405180910390f35b600060608060008060008073ffffffffffffffffffffffffffffffffffffffff16600360008973ffffffffffffffffffffffffffffffffffffffff1673ffffffffffffffffffffffffffffffffffffffff16815260200190815260200160002060000160009054906101000a900473ffffffffffffffffffffffffffffffffffffffff1673ffffffffffffffffffffffffffffffffffffffff16141561183a576040517f08c379a0000000000000000000000000000000000000000000000000000000008152600401808060200182810382526027815260200180615ee26027913960400191505060405180910390fd5b600360008873ffffffffffffffffffffffffffffffffffffffff1673ffffffffffffffffffffffffffffffffffffffff16815260200190815260200160002060000160009054906101000a900473ffffffffffffffffffffffffffffffffffffffff16600360008973ffffffffffffffffffffffffffffffffffffffff1673ffffffffffffffffffffffffffffffffffffffff168152602001908152602001600020600101600360008a73ffffffffffffffffffffffffffffffffffffffff1673ffffffffffffffffffffffffffffffffffffffff168152602001908152602001600020600201600360008b73ffffffffffffffffffffffffffffffffffffffff1673ffffffffffffffffffffffffffffffffffffffff16815260200190815260200160002060030154600360008c73ffffffffffffffffffffffffffffffffffffffff1673ffffffffffffffffffffffffffffffffffffffff16815260200190815260200160002060040154600360008d73ffffffffffffffffffffffffffffffffffffffff1673ffffffffffffffffffffffffffffffffffffffff16815260200190815260200160002060050160009054906101000a900460ff16848054600181600116156101000203166002900480601f016020809104026020016040519081016040528092919081815260200182805460018160011615610100020316600290048015611a8c5780601f10611a6157610100808354040283529160200191611a8c565b820191906000526020600020905b815481529060010190602001808311611a6f57829003601f168201915b50505050509450838054600181600116156101000203166002900480601f016020809104026020016040519081016040528092919081815260200182805460018160011615610100020316600290048015611b285780601f10611afd57610100808354040283529160200191611b28565b820191906000526020600020905b815481529060010190602001808311611b0b57829003601f168201915b5050505050935095509550955095509550955091939550919395565b60608060008085856000611bc26001846040518082805190602001908083835b60208310611b875780518252602082019150602081019050602083039250611b64565b6001836020036101000a03801982511681845116808217855250505050505090500191505090815260200160405180910390206000016158fa565b1415611c36576040517f08c379a00000000000000000000000000000000000000000000000000000000081526004018080602001828103825260138152602001807f437573746f6d6572206e6f7420666f756e642e0000000000000000000000000081525060200191505060405180910390fd5b80805190602001206001836040518082805190602001908083835b60208310611c745780518252602082019150602081019050602083039250611c51565b6001836020036101000a0380198251168184511680821785525050505050509050019150509081526020016040518091039020600401541415611fd5576001886040518082805190602001908083835b60208310611ce75780518252602082019150602081019050602083039250611cc4565b6001836020036101000a03801982511681845116808217855250505050505090500191505090815260200160405180910390206000016001896040518082805190602001908083835b60208310611d535780518252602082019150602081019050602083039250611d30565b6001836020036101000a038019825116818451168082178552505050505050905001915050908152602001604051809103902060010160018a6040518082805190602001908083835b60208310611dbf5780518252602082019150602081019050602083039250611d9c565b6001836020036101000a038019825116818451168082178552505050505050905001915050908152602001604051809103902060020160009054906101000a900460ff1660018b6040518082805190602001908083835b60208310611e395780518252602082019150602081019050602083039250611e16565b6001836020036101000a038019825116818451168082178552505050505050905001915050908152602001604051809103902060020160019054906101000a900473ffffffffffffffffffffffffffffffffffffffff16838054600181600116156101000203166002900480601f016020809104026020016040519081016040528092919081815260200182805460018160011615610100020316600290048015611f255780601f10611efa57610100808354040283529160200191611f25565b820191906000526020600020905b815481529060010190602001808311611f0857829003601f168201915b50505050509350828054600181600116156101000203166002900480601f016020809104026020016040519081016040528092919081815260200182805460018160011615610100020316600290048015611fc15780601f10611f9657610100808354040283529160200191611fc1565b820191906000526020600020905b815481529060010190602001808311611fa457829003601f168201915b505050505092509550955095509550612026565b6040517f08c379a000000000000000000000000000000000000000000000000000000000815260040180806020018281038252603b815260200180615e7f603b913960400191505060405180910390fd5b505092959194509250565b60008073ffffffffffffffffffffffffffffffffffffffff16600360003373ffffffffffffffffffffffffffffffffffffffff1673ffffffffffffffffffffffffffffffffffffffff16815260200190815260200160002060000160009054906101000a900473ffffffffffffffffffffffffffffffffffffffff1673ffffffffffffffffffffffffffffffffffffffff161415612137576040517f08c379a000000000000000000000000000000000000000000000000000000000815260040180806020018281038252601e8152602001807f596f7520617265206e6f7420726567697374657265642061732062616e6b000081525060200191505060405180910390fd5b8282600080905060008090505b60068054905081101561229a576121e460056006838154811061216357fe5b9060005260206000200160405180828054600181600116156101000203166002900480156121c85780601f106121a65761010080835404028352918201916121c8565b820191906000526020600020905b8154815290600101906020018083116121b4575b5050915050908152602001604051809103902060010184615919565b801561227f575061227e6005600683815481106121fd57fe5b9060005260206000200160405180828054600181600116156101000203166002900480156122625780601f10612240576101008083540402835291820191612262565b820191906000526020600020905b81548152906001019060200180831161224e575b5050915050908152602001604051809103902060000185615919565b5b1561228d576001915061229a565b8080600101915050612144565b50806122f1576040517f08c379a000000000000000000000000000000000000000000000000000000000815260040180806020018281038252602b815260200180615e54602b913960400191505060405180910390fd5b84600115156005826040518082805190602001908083835b6020831061232c5780518252602082019150602081019050602083039250612309565b6001836020036101000a038019825116818451168082178552505050505050905001915050908152602001604051809103902060020160149054906101000a900460ff161515146123c8576040517f08c379a00000000000000000000000000000000000000000000000000000000081526004018080602001828103825260328152602001806160416032913960400191505060405180910390fd5b600073ffffffffffffffffffffffffffffffffffffffff166001886040518082805190602001908083835b6020831061241657805182526020820191506020810190506020830392506123f3565b6001836020036101000a038019825116818451168082178552505050505050905001915050908152602001604051809103902060020160019054906101000a900473ffffffffffffffffffffffffffffffffffffffff1673ffffffffffffffffffffffffffffffffffffffff16146124d9576040517f08c379a0000000000000000000000000000000000000000000000000000000008152600401808060200182810382526056815260200180615f096056913960600191505060405180910390fd5b866001886040518082805190602001908083835b6020831061251057805182526020820191506020810190506020830392506124ed565b6001836020036101000a03801982511681845116808217855250505050505090500191505090815260200160405180910390206000019080519060200190612559929190615bd4565b50856001886040518082805190602001908083835b60208310612591578051825260208201915060208101905060208303925061256e565b6001836020036101000a038019825116818451168082178552505050505050905001915050908152602001604051809103902060010190805190602001906125da929190615bd4565b50336001886040518082805190602001908083835b6020831061261257805182526020820191506020810190506020830392506125ef565b6001836020036101000a038019825116818451168082178552505050505050905001915050908152602001604051809103902060020160016101000a81548173ffffffffffffffffffffffffffffffffffffffff021916908373ffffffffffffffffffffffffffffffffffffffff16021790555060006001886040518082805190602001908083835b602083106126be578051825260208201915060208101905060208303925061269b565b6001836020036101000a038019825116818451168082178552505050505050905001915050908152602001604051809103902060020160006101000a81548160ff021916908360ff16021790555060405180807f3000000000000000000000000000000000000000000000000000000000000000815250600101905060405180910390206001886040518082805190602001908083835b602083106127785780518252602082019150602081019050602083039250612755565b6001836020036101000a03801982511681845116808217855250505050505090500191505090815260200160405180910390206004018190555060028790806001815401808255809150509060018203906000526020600020016000909192909190915090805190602001906127ef929190615bd4565b50506127fb8787614aed565b50600194505050505092915050565b60008060009054906101000a900473ffffffffffffffffffffffffffffffffffffffff1673ffffffffffffffffffffffffffffffffffffffff163373ffffffffffffffffffffffffffffffffffffffff16146128b1576040517f08c379a000000000000000000000000000000000000000000000000000000000815260040180806020018281038252602d815260200180615fdf602d913960400191505060405180910390fd5b600073ffffffffffffffffffffffffffffffffffffffff16600360008473ffffffffffffffffffffffffffffffffffffffff1673ffffffffffffffffffffffffffffffffffffffff16815260200190815260200160002060000160009054906101000a900473ffffffffffffffffffffffffffffffffffffffff1673ffffffffffffffffffffffffffffffffffffffff16146129b5576040517f08c379a00000000000000000000000000000000000000000000000000000000081526004018080602001828103825260208152602001807f546869732042616e6b20697320616c726561647920726567697374657265642e81525060200191505060405180910390fd5b83600360008473ffffffffffffffffffffffffffffffffffffffff1673ffffffffffffffffffffffffffffffffffffffff1681526020019081526020016000206001019080519060200190612a0b929190615bd4565b5081600360008473ffffffffffffffffffffffffffffffffffffffff1673ffffffffffffffffffffffffffffffffffffffff16815260200190815260200160002060000160006101000a81548173ffffffffffffffffffffffffffffffffffffffff021916908373ffffffffffffffffffffffffffffffffffffffff16021790555082600360008473ffffffffffffffffffffffffffffffffffffffff1673ffffffffffffffffffffffffffffffffffffffff1681526020019081526020016000206002019080519060200190612ae3929190615bd4565b506000600360008473ffffffffffffffffffffffffffffffffffffffff1673ffffffffffffffffffffffffffffffffffffffff168152602001908152602001600020600301819055506000600360008473ffffffffffffffffffffffffffffffffffffffff1673ffffffffffffffffffffffffffffffffffffffff1681526020019081526020016000206004018190555060048290806001815401808255809150509060018203906000526020600020016000909192909190916101000a81548173ffffffffffffffffffffffffffffffffffffffff021916908373ffffffffffffffffffffffffffffffffffffffff16021790555050600190509392505050565b6060806060806000600360008773ffffffffffffffffffffffffffffffffffffffff1673ffffffffffffffffffffffffffffffffffffffff168152602001908152602001600020905060608160030154604051908082528060200260200182016040528015612c635781602001602082028038833980820191505090505b50905060608260030154604051908082528060200260200182016040528015612c9b5781602001602082028038833980820191505090505b50905060608360030154604051908082528060200260200182016040528015612cd35781602001602082028038833980820191505090505b50905060608460030154604051908082528060200260200182016040528015612d0b5781602001602082028038833980820191505090505b509050600080905060008090505b60068054905081101561306f578b73ffffffffffffffffffffffffffffffffffffffff16600560068381548110612d4c57fe5b906000526020600020016040518082805460018160011615610100020316600290048015612db15780601f10612d8f576101008083540402835291820191612db1565b820191906000526020600020905b815481529060010190602001808311612d9d575b5050915050908152602001604051809103902060020160009054906101000a900473ffffffffffffffffffffffffffffffffffffffff1673ffffffffffffffffffffffffffffffffffffffff161415613062578b868381518110612e1157fe5b602002602001019073ffffffffffffffffffffffffffffffffffffffff16908173ffffffffffffffffffffffffffffffffffffffff1681525050612edf600560068381548110612e5d57fe5b906000526020600020016040518082805460018160011615610100020316600290048015612ec25780601f10612ea0576101008083540402835291820191612ec2565b820191906000526020600020905b815481529060010190602001808311612eae575b505091505090815260200160405180910390206000016000615a97565b858381518110612eeb57fe5b602002602001018181525050600560068281548110612f0657fe5b906000526020600020016040518082805460018160011615610100020316600290048015612f6b5780601f10612f49576101008083540402835291820191612f6b565b820191906000526020600020905b815481529060010190602001808311612f57575b5050915050908152602001604051809103902060020160149054906101000a900460ff16838381518110612f9b57fe5b602002602001019015159081151581525050613041600560068381548110612fbf57fe5b9060005260206000200160405180828054600181600116156101000203166002900480156130245780601f10613002576101008083540402835291820191613024565b820191906000526020600020905b815481529060010190602001808311613010575b505091505090815260200160405180910390206001016000615a97565b84838151811061304d57fe5b60200260200101818152505081806001019250505b8080600101915050612d19565b508484848499509950995099505050505050509193509193565b600060608060008060006131286001886040518082805190602001908083835b602083106130cc57805182526020820191506020810190506020830392506130a9565b6001836020036101000a038019825116818451168082178552505050505050905001915050908152602001604051809103902060020160019054906101000a900473ffffffffffffffffffffffffffffffffffffffff16611749565b95509550955095509550955091939550919395565b600080600090505b6002805490508110156131f9576131726002828154811061316257fe5b9060005260206000200184615919565b156131ec576001836040518082805190602001908083835b602083106131ad578051825260208201915060208101905060208303925061318a565b6001836020036101000a03801982511681845116808217855250505050505090500191505090815260200160405180910390206003015491505061324b565b8080600101915050613145565b506040517f08c379a0000000000000000000000000000000000000000000000000000000008152600401808060200182810382526028815260200180615eba6028913960400191505060405180910390fd5b919050565b60008060009054906101000a900473ffffffffffffffffffffffffffffffffffffffff1673ffffffffffffffffffffffffffffffffffffffff163373ffffffffffffffffffffffffffffffffffffffff16146132f7576040517f08c379a000000000000000000000000000000000000000000000000000000000815260040180806020018281038252602d815260200180615fdf602d913960400191505060405180910390fd5b600073ffffffffffffffffffffffffffffffffffffffff16600360008473ffffffffffffffffffffffffffffffffffffffff1673ffffffffffffffffffffffffffffffffffffffff16815260200190815260200160002060000160009054906101000a900473ffffffffffffffffffffffffffffffffffffffff1673ffffffffffffffffffffffffffffffffffffffff1614156133fc576040517f08c379a000000000000000000000000000000000000000000000000000000000815260040180806020018281038252601c8152602001807f546869732042616e6b206973206e6f7420726567697374657265642e0000000081525060200191505060405180910390fd5b600360008373ffffffffffffffffffffffffffffffffffffffff1673ffffffffffffffffffffffffffffffffffffffff168152602001908152602001600020600080820160006101000a81549073ffffffffffffffffffffffffffffffffffffffff02191690556001820160006134739190615c54565b6002820160006134839190615c54565b600382016000905560048201600090556005820160006101000a81549060ff0219169055505060008090505b60048054905081101561357d5760006001820190505b60048054905081101561356f57600481815481106134df57fe5b9060005260206000200160009054906101000a900473ffffffffffffffffffffffffffffffffffffffff166004600183038154811061351a57fe5b9060005260206000200160006101000a81548173ffffffffffffffffffffffffffffffffffffffff021916908373ffffffffffffffffffffffffffffffffffffffff16021790555080806001019150506134c5565b5080806001019150506134af565b5060048054809190600190036135939190615c9c565b5060019050919050565b6000838260006136176001846040518082805190602001908083835b602083106135dc57805182526020820191506020810190506020830392506135b9565b6001836020036101000a03801982511681845116808217855250505050505090500191505090815260200160405180910390206000016158fa565b141561368b576040517f08c379a00000000000000000000000000000000000000000000000000000000081526004018080602001828103825260138152602001807f437573746f6d6572206e6f7420666f756e642e0000000000000000000000000081525060200191505060405180910390fd5b80805190602001206001836040518082805190602001908083835b602083106136c957805182526020820191506020810190506020830392506136a6565b6001836020036101000a0380198251168184511680821785525050505050509050019150509081526020016040518091039020600401541415613b575760008090505b600280549050811015613b4c576137396002828154811061372957fe5b9060005260206000200188615919565b15613b3f576137b36007886040518082805190602001908083835b602083106137775780518252602082019150602081019050602083039250613754565b6001836020036101000a038019825116818451168082178552505050505050905001915050908152602001604051809103902060000188615919565b15613890576007876040518082805190602001908083835b602083106137ee57805182526020820191506020810190506020830392506137cb565b6001836020036101000a0380198251168184511680821785525050505050509050019150509081526020016040518091039020600080820160006138329190615c54565b6001820160006138429190615c54565b6002820160006101000a81549060ff02191690556002820160016101000a81549073ffffffffffffffffffffffffffffffffffffffff02191690556003820160009055600482016000905550505b856001886040518082805190602001908083835b602083106138c757805182526020820191506020810190506020830392506138a4565b6001836020036101000a03801982511681845116808217855250505050505090500191505090815260200160405180910390206001019080519060200190613910929190615bd4565b50866001886040518082805190602001908083835b602083106139485780518252602082019150602081019050602083039250613925565b6001836020036101000a03801982511681845116808217855250505050505090500191505090815260200160405180910390206000019080519060200190613991929190615bd4565b5060006001886040518082805190602001908083835b602083106139ca57805182526020820191506020810190506020830392506139a7565b6001836020036101000a038019825116818451168082178552505050505050905001915050908152602001604051809103902060020160006101000a81548160ff021916908360ff16021790555060006001886040518082805190602001908083835b60208310613a505780518252602082019150602081019050602083039250613a2d565b6001836020036101000a038019825116818451168082178552505050505050905001915050908152602001604051809103902060030181905550336001886040518082805190602001908083835b60208310613ac15780518252602082019150602081019050602083039250613a9e565b6001836020036101000a038019825116818451168082178552505050505050905001915050908152602001604051809103902060020160016101000a81548173ffffffffffffffffffffffffffffffffffffffff021916908373ffffffffffffffffffffffffffffffffffffffff1602179055506001935050613b52565b808060010191505061370c565b50600092505b613ba8565b6040517f08c379a000000000000000000000000000000000000000000000000000000000815260040180806020018281038252603b815260200180615e7f603b913960400191505060405180910390fd5b50509392505050565b60008073ffffffffffffffffffffffffffffffffffffffff16600360003373ffffffffffffffffffffffffffffffffffffffff1673ffffffffffffffffffffffffffffffffffffffff16815260200190815260200160002060000160009054906101000a900473ffffffffffffffffffffffffffffffffffffffff1673ffffffffffffffffffffffffffffffffffffffff161415613cb7576040517f08c379a000000000000000000000000000000000000000000000000000000000815260040180806020018281038252601e8152602001807f596f7520617265206e6f7420726567697374657265642061732062616e6b000081525060200191505060405180910390fd5b83836000613d2f6001846040518082805190602001908083835b60208310613cf45780518252602082019150602081019050602083039250613cd1565b6001836020036101000a03801982511681845116808217855250505050505090500191505090815260200160405180910390206000016158fa565b1415613da3576040517f08c379a00000000000000000000000000000000000000000000000000000000081526004018080602001828103825260138152602001807f437573746f6d6572206e6f7420666f756e642e0000000000000000000000000081525060200191505060405180910390fd5b80805190602001206001836040518082805190602001908083835b60208310613de15780518252602082019150602081019050602083039250613dbe565b6001836020036101000a0380198251168184511680821785525050505050509050019150509081526020016040518091039020600401541415613e9f5783805190602001206001876040518082805190602001908083835b60208310613e5c5780518252602082019150602081019050602083039250613e39565b6001836020036101000a03801982511681845116808217855250505050505090500191505090815260200160405180910390206004018190555060019250613ef0565b6040517f08c379a000000000000000000000000000000000000000000000000000000000815260040180806020018281038252603b815260200180615e7f603b913960400191505060405180910390fd5b50509392505050565b60008073ffffffffffffffffffffffffffffffffffffffff16600360008473ffffffffffffffffffffffffffffffffffffffff1673ffffffffffffffffffffffffffffffffffffffff16815260200190815260200160002060000160009054906101000a900473ffffffffffffffffffffffffffffffffffffffff1673ffffffffffffffffffffffffffffffffffffffff161415613fe2576040517f08c379a0000000000000000000000000000000000000000000000000000000008152600401808060200182810382526027815260200180615ee26027913960400191505060405180910390fd5b600360008373ffffffffffffffffffffffffffffffffffffffff1673ffffffffffffffffffffffffffffffffffffffff168152602001908152602001600020600401549050919050565b60008073ffffffffffffffffffffffffffffffffffffffff16600360003373ffffffffffffffffffffffffffffffffffffffff1673ffffffffffffffffffffffffffffffffffffffff16815260200190815260200160002060000160009054906101000a900473ffffffffffffffffffffffffffffffffffffffff1673ffffffffffffffffffffffffffffffffffffffff161415614132576040517f08c379a000000000000000000000000000000000000000000000000000000000815260040180806020018281038252601e8152602001807f596f7520617265206e6f7420726567697374657265642061732062616e6b000081525060200191505060405180910390fd5b3373ffffffffffffffffffffffffffffffffffffffff168273ffffffffffffffffffffffffffffffffffffffff1614156141d4576040517f08c379a00000000000000000000000000000000000000000000000000000000081526004018080602001828103825260188152602001807f596f752063616e6e6f7420766f746520796f757273656c66000000000000000081525060200191505060405180910390fd5b600073ffffffffffffffffffffffffffffffffffffffff16600360008473ffffffffffffffffffffffffffffffffffffffff1673ffffffffffffffffffffffffffffffffffffffff16815260200190815260200160002060000160009054906101000a900473ffffffffffffffffffffffffffffffffffffffff1673ffffffffffffffffffffffffffffffffffffffff1614156142bc576040517f08c379a000000000000000000000000000000000000000000000000000000000815260040180806020018281038252603581526020018061600c6035913960400191505060405180910390fd5b6000600960008473ffffffffffffffffffffffffffffffffffffffff1673ffffffffffffffffffffffffffffffffffffffff16815260200190815260200160002060003373ffffffffffffffffffffffffffffffffffffffff1673ffffffffffffffffffffffffffffffffffffffff1681526020019081526020016000205414614391576040517f08c379a0000000000000000000000000000000000000000000000000000000008152600401808060200182810382526028815260200180615fb76028913960400191505060405180910390fd5b600360008373ffffffffffffffffffffffffffffffffffffffff1673ffffffffffffffffffffffffffffffffffffffff168152602001908152602001600020600501600081819054906101000a900460ff168092919060010191906101000a81548160ff021916908360ff16021790555050614464600360008473ffffffffffffffffffffffffffffffffffffffff1673ffffffffffffffffffffffffffffffffffffffff16815260200190815260200160002060050160009054906101000a900460ff1660ff16600480549050615bbd565b600360008473ffffffffffffffffffffffffffffffffffffffff1673ffffffffffffffffffffffffffffffffffffffff1681526020019081526020016000206004018190555042600960008473ffffffffffffffffffffffffffffffffffffffff1673ffffffffffffffffffffffffffffffffffffffff16815260200190815260200160002060003373ffffffffffffffffffffffffffffffffffffffff1673ffffffffffffffffffffffffffffffffffffffff1681526020019081526020016000208190555060019050919050565b60008073ffffffffffffffffffffffffffffffffffffffff16600360003373ffffffffffffffffffffffffffffffffffffffff1673ffffffffffffffffffffffffffffffffffffffff16815260200190815260200160002060000160009054906101000a900473ffffffffffffffffffffffffffffffffffffffff1673ffffffffffffffffffffffffffffffffffffffff16141561463a576040517f08c379a000000000000000000000000000000000000000000000000000000000815260040180806020018281038252601e8152602001807f596f7520617265206e6f7420726567697374657265642061732062616e6b000081525060200191505060405180910390fd5b600073ffffffffffffffffffffffffffffffffffffffff166005836040518082805190602001908083835b602083106146885780518252602082019150602081019050602083039250614665565b6001836020036101000a038019825116818451168082178552505050505050905001915050908152602001604051809103902060020160009054906101000a900473ffffffffffffffffffffffffffffffffffffffff1673ffffffffffffffffffffffffffffffffffffffff161461474b576040517f08c379a000000000000000000000000000000000000000000000000000000000815260040180806020018281038252603e815260200180616073603e913960400191505060405180910390fd5b816005836040518082805190602001908083835b60208310614782578051825260208201915060208101905060208303925061475f565b6001836020036101000a038019825116818451168082178552505050505050905001915050908152602001604051809103902060010190805190602001906147cb929190615bd4565b50826005836040518082805190602001908083835b6020831061480357805182526020820191506020810190506020830392506147e0565b6001836020036101000a0380198251168184511680821785525050505050509050019150509081526020016040518091039020600001908051906020019061484c929190615bd4565b50336005836040518082805190602001908083835b602083106148845780518252602082019150602081019050602083039250614861565b6001836020036101000a038019825116818451168082178552505050505050905001915050908152602001604051809103902060020160006101000a81548173ffffffffffffffffffffffffffffffffffffffff021916908373ffffffffffffffffffffffffffffffffffffffff160217905550600360003373ffffffffffffffffffffffffffffffffffffffff1673ffffffffffffffffffffffffffffffffffffffff168152602001908152602001600020600301600081548092919060010191905055506032600360003373ffffffffffffffffffffffffffffffffffffffff1673ffffffffffffffffffffffffffffffffffffffff1681526020019081526020016000206004015411614a1e5760006005836040518082805190602001908083835b602083106149cc57805182526020820191506020810190506020830392506149a9565b6001836020036101000a038019825116818451168082178552505050505050905001915050908152602001604051809103902060020160146101000a81548160ff021916908315150217905550614aa4565b60016005836040518082805190602001908083835b60208310614a565780518252602082019150602081019050602083039250614a33565b6001836020036101000a038019825116818451168082178552505050505050905001915050908152602001604051809103902060020160146101000a81548160ff0219169083151502179055505b6006829080600181540180825580915050906001820390600052602060002001600090919290919091509080519060200190614ae1929190615bd4565b50506001905092915050565b60008060009050600090505b6006805490508160ff161015614ed057614b9f600560068360ff1681548110614b1e57fe5b906000526020600020016040518082805460018160011615610100020316600290048015614b835780601f10614b61576101008083540402835291820191614b83565b820191906000526020600020905b815481529060010190602001808311614b6f575b5050915050908152602001604051809103902060000185615919565b8015614c3d5750614c3c600560068360ff1681548110614bbb57fe5b906000526020600020016040518082805460018160011615610100020316600290048015614c205780601f10614bfe576101008083540402835291820191614c20565b820191906000526020600020905b815481529060010190602001808311614c0c575b5050915050908152602001604051809103902060010184615919565b5b15614ec357600060036000600560068560ff1681548110614c5a57fe5b906000526020600020016040518082805460018160011615610100020316600290048015614cbf5780601f10614c9d576101008083540402835291820191614cbf565b820191906000526020600020905b815481529060010190602001808311614cab575b5050915050908152602001604051809103902060020160009054906101000a900473ffffffffffffffffffffffffffffffffffffffff1673ffffffffffffffffffffffffffffffffffffffff1673ffffffffffffffffffffffffffffffffffffffff1681526020019081526020016000209050600560068360ff1681548110614d4457fe5b906000526020600020016040518082805460018160011615610100020316600290048015614da95780601f10614d87576101008083540402835291820191614da9565b820191906000526020600020905b815481529060010190602001808311614d95575b5050915050908152602001604051809103902060008082016000614dcd9190615c54565b600182016000614ddd9190615c54565b6002820160006101000a81549073ffffffffffffffffffffffffffffffffffffffff02191690556002820160146101000a81549060ff0219169055505060006001830160ff1690505b600680549050811015614e915760068181548110614e4057fe5b9060005260206000200160066001830381548110614e5a57fe5b906000526020600020019080546001816001161561010002031660029004614e83929190615cc8565b508080600101915050614e26565b506006805480919060019003614ea79190615d4f565b5080600301600081548092919060019003919050555060019150505b8080600101915050614af9565b8091505092915050565b60008073ffffffffffffffffffffffffffffffffffffffff16600360003373ffffffffffffffffffffffffffffffffffffffff1673ffffffffffffffffffffffffffffffffffffffff16815260200190815260200160002060000160009054906101000a900473ffffffffffffffffffffffffffffffffffffffff1673ffffffffffffffffffffffffffffffffffffffff161415614fe0576040517f08c379a000000000000000000000000000000000000000000000000000000000815260040180806020018281038252601e8152602001807f596f7520617265206e6f7420726567697374657265642061732062616e6b000081525060200191505060405180910390fd5b60405180807f3000000000000000000000000000000000000000000000000000000000000000815250600101905060405180910390206001846040518082805190602001908083835b6020831061504c5780518252602082019150602081019050602083039250615029565b6001836020036101000a038019825116818451168082178552505050505050905001915050908152602001604051809103902060040154146150d9576040517f08c379a0000000000000000000000000000000000000000000000000000000008152600401808060200182810382526058815260200180615f5f6058913960600191505060405180910390fd5b81805190602001206001846040518082805190602001908083835b6020831061511757805182526020820191506020810190506020830392506150f4565b6001836020036101000a0380198251168184511680821785525050505050509050019150509081526020016040518091039020600401819055506001905092915050565b600080600090505b600280549050811015615731576151906002828154811061518057fe5b9060005260206000200184615919565b156157245760006008846040518082805190602001908083835b602083106151cd57805182526020820191506020810190506020830392506151aa565b6001836020036101000a038019825116818451168082178552505050505050905001915050908152602001604051809103902060003373ffffffffffffffffffffffffffffffffffffffff1673ffffffffffffffffffffffffffffffffffffffff1681526020019081526020016000205414615294576040517f08c379a0000000000000000000000000000000000000000000000000000000008152600401808060200182810382526028815260200180615fb76028913960400191505060405180910390fd5b6001836040518082805190602001908083835b602083106152ca57805182526020820191506020810190506020830392506152a7565b6001836020036101000a0380198251168184511680821785525050505050509050019150509081526020016040518091039020600201600081819054906101000a900460ff168092919060010191906101000a81548160ff021916908360ff160217905550506153bb6001846040518082805190602001908083835b602083106153695780518252602082019150602081019050602083039250615346565b6001836020036101000a038019825116818451168082178552505050505050905001915050908152602001604051809103902060020160009054906101000a900460ff1660ff16600480549050615bbd565b6001846040518082805190602001908083835b602083106153f157805182526020820191506020810190506020830392506153ce565b6001836020036101000a038019825116818451168082178552505050505050905001915050908152602001604051809103902060030181905550426008846040518082805190602001908083835b60208310615462578051825260208201915060208101905060208303925061543f565b6001836020036101000a038019825116818451168082178552505050505050905001915050908152602001604051809103902060003373ffffffffffffffffffffffffffffffffffffffff1673ffffffffffffffffffffffffffffffffffffffff1681526020019081526020016000208190555060326001846040518082805190602001908083835b6020831061550e57805182526020820191506020810190506020830392506154eb565b6001836020036101000a038019825116818451168082178552505050505050905001915050908152602001604051809103902060030154111561571a576001836040518082805190602001908083835b60208310615581578051825260208201915060208101905060208303925061555e565b6001836020036101000a03801982511681845116808217855250505050505090500191505090815260200160405180910390206007846040518082805190602001908083835b602083106155ea57805182526020820191506020810190506020830392506155c7565b6001836020036101000a038019825116818451168082178552505050505050905001915050908152602001604051809103902060008201816000019080546001816001161561010002031660029004615644929190615d7b565b506001820181600101908054600181600116156101000203166002900461566c929190615d7b565b506002820160009054906101000a900460ff168160020160006101000a81548160ff021916908360ff1602179055506002820160019054906101000a900473ffffffffffffffffffffffffffffffffffffffff168160020160016101000a81548173ffffffffffffffffffffffffffffffffffffffff021916908373ffffffffffffffffffffffffffffffffffffffff16021790555060038201548160030155600482015481600401559050505b6001915050615737565b8080600101915050615163565b50600090505b919050565b600080600090505b6002805490508110156158ef576157716002828154811061576157fe5b9060005260206000200184615919565b156158e2576001836040518082805190602001908083835b602083106157ac5780518252602082019150602081019050602083039250615789565b6001836020036101000a0380198251168184511680821785525050505050509050019150509081526020016040518091039020600080820160006157f09190615c54565b6001820160006158009190615c54565b6002820160006101000a81549060ff02191690556002820160016101000a81549073ffffffffffffffffffffffffffffffffffffffff021916905560038201600090556004820160009055505060006001820190505b6002805490508110156158c1576002818154811061587057fe5b906000526020600020016002600183038154811061588a57fe5b9060005260206000200190805460018160011615610100020316600290046158b3929190615cc8565b508080600101915050615856565b5060028054809190600190036158d79190615d4f565b5060019150506158f5565b8080600101915050615744565b50600090505b919050565b6000818054600181600116156101000203166002900490509050919050565b60008083905060608390508051828054600181600116156101000203166002900490501461594c57600092505050615a91565b60008090505b82805460018160011615610100020316600290049050811015615a895781818151811061597b57fe5b60200101517f010000000000000000000000000000000000000000000000000000000000000090047f0100000000000000000000000000000000000000000000000000000000000000027effffffffffffffffffffffffffffffffffffffffffffffffffffffffffffff19168382815460018160011615610100020316600290048110615a0457fe5b815460011615615a235790600052602060002090602091828204019190065b9054901a7f0100000000000000000000000000000000000000000000000000000000000000027effffffffffffffffffffffffffffffffffffffffffffffffffffffffffffff191614615a7c5760009350505050615a91565b8080600101915050615952565b506001925050505b92915050565b600080600060208580546001816001161561010002031660029004905011615ad45784805460018160011615610100020316600290049050615ad7565b60205b905060008090505b81811015615bb1576008810260ff7f01000000000000000000000000000000000000000000000000000000000000000287838801815460018160011615610100020316600290048110615b2e57fe5b815460011615615b4d5790600052602060002090602091828204019190065b9054901a7f010000000000000000000000000000000000000000000000000000000000000002167effffffffffffffffffffffffffffffffffffffffffffffffffffffffffffff1916908060020a8204915050831792508080600101915050615adf565b50819250505092915050565b6000818360640281615bcb57fe5b04905092915050565b828054600181600116156101000203166002900490600052602060002090601f016020900481019282601f10615c1557805160ff1916838001178555615c43565b82800160010185558215615c43579182015b82811115615c42578251825591602001919060010190615c27565b5b509050615c509190615e02565b5090565b50805460018160011615610100020316600290046000825580601f10615c7a5750615c99565b601f016020900490600052602060002090810190615c989190615e02565b5b50565b815481835581811115615cc357818360005260206000209182019101615cc29190615e02565b5b505050565b828054600181600116156101000203166002900490600052602060002090601f016020900481019282601f10615d015780548555615d3e565b82800160010185558215615d3e57600052602060002091601f016020900482015b82811115615d3d578254825591600101919060010190615d22565b5b509050615d4b9190615e02565b5090565b815481835581811115615d7657818360005260206000209182019101615d759190615e27565b5b505050565b828054600181600116156101000203166002900490600052602060002090601f016020900481019282601f10615db45780548555615df1565b82800160010185558215615df157600052602060002091601f016020900482015b82811115615df0578254825591600101919060010190615dd5565b5b509050615dfe9190615e02565b5090565b615e2491905b80821115615e20576000816000905550600101615e08565b5090565b90565b615e5091905b80821115615e4c5760008181615e439190615c54565b50600101615e2d565b5090565b9056fe4b5943205265717565737420666f72207468697320437573746f6d657220646f65736e6f7420657869737450617373776f726420697320696e636f72726563742e20506173732027302720696620637573746f6d657220686173206e6f2070617373776f7264437573746f6d657220796f75207175657269656420666f7220646f6573206e6f742065786973742e42616e6b20796f75207175657269656420666f72206973206e6f7420726567697374657265642e5468697320637573746f6d657220697320616c72656164792070726573656e742c20706c656173652063616c6c206d6f64696679437573746f6d657220746f20656469742074686520637573746f6d65722064617461437573746f6d657220697320616c72656164792070726f7465637465642062792070617373776f72642e20557365206d6f64696679437573746f6d657250617373776f726420746f207570646174652070617373776f7264596f75206861766520616c726561647920766f74656420666f72207468697320637573746f6d6572596f7520646f206e6f742068617665207065726d7373696f6e20746f2063616c6c2074686973206d6574686f645468652042616e6b20796f752061726520747279696e6720746f20766f746520666f72206973206e6f74207265676973746572656444656e6965642e2054686973204b5943206973206e6f742072657175657374656420627920616c6c6f7765642062616e6b2e54686973207573657220616c7265616479206861732061204b5943207265717565737420776974682073616d65206461746120696e2070726f636573732ea265627a7a72305820b29c67978e4f70174626f70b20c5aae6d4391d5305ce1a1bcff6793e7548c08c64736f6c63430005090032",
  "source": "pragma solidity ^0.5.9;\r\nimport \"./BankHandler.sol\";\r\nimport \"./AdminHandler.sol\";\r\nimport \"./DataStorage.sol\";\r\n\r\n/**\r\n * Main container contract which inherits all handler contracts\r\n * Logic is seperated out in to multiple contracts for readabilty and maintainability\r\n *  - Handler functions - Each of business entity functions are put in separate contracts - BankHandler, AdminHandler\r\n *  - Types - All custom types/struct are defined in the Types contract. Other contract will inherit Types if they need to use custom types.\r\n *  - DataStorage - All permanant storage varaibles are declared here. This contract can be shared between other contracts by inherting it.\r\n *  - AccessControl - All modifiers related to access, permission and authentication is defined here.\r\n *  - Helpers - Utiltites functions defined here\r\n */\r\ncontract KYC is DataStorage,BankHandler, AdminHandler{\r\n    constructor() public{\r\n        admin = msg.sender;\r\n    }\r\n}\r\n",
  "sourcePath": "C:/Users/HP/Documents/Fiddle/KYC_Eth/contracts/KYC.sol",
  "compiler": {
    "name": "solc",
    "version": "0.5.9+commit.e560f70d.Emscripten.clang"
  },
  "schemaVersion": "3.0.20",
  "updatedAt": "2020-01-06T18:22:04.530Z",
  "networkType": "ethereum",
  "devdoc": {
    "methods": {
      "addBank(string,string,address)": {
        "params": {
          "": "{address} ethAddress address of the bank\r"
        }
      },
      "addCustomer(string,string)": {
        "params": {
          "": "{string} _hash Hash of the customer's ID submitted for KYC\r"
        }
      },
      "addKycRequest(string,string)": {
        "params": {
          "": "{address} _bankEthAddress The ethAddress of the bank issuing this request\r"
        },
        "return": "{bool}        True if this function execution was successful\r"
      },
      "getAccessHistory(string)": {
        "params": {
          "": "{string} username customer's username\r"
        }
      },
      "getBankDetails(address)": {
        "params": {
          "": "{address} bankAddress Address of the bank to get the details\r"
        }
      },
      "getBankRating(address)": {
        "params": {
          "": "{address} bankAddress Address of the bank to get the rating\r"
        }
      },
      "getBankRequests(address)": {
        "params": {
          "": "{string} bankAddress\r returns tuple with n lists where n corresponds to fields of KYC_Request struct. Each of the list are assosicated accross each other with index\r"
        }
      },
      "getCustomerRating(string)": {
        "params": {
          "": "{string} username customer's username\r"
        }
      },
      "modifyCustomer(string,string,string)": {
        "params": {
          "": "{string} password password of the customer or '0' if no password is set\r"
        },
        "return": "{uint8} A 0 indicates failure, 1 indicates success\r"
      },
      "modifyCustomerPassword(string,string,string)": {
        "params": {
          "": "{string} newPassword new password to set\r"
        }
      },
      "removeBank(address)": {
        "params": {
          "": "{string} bankName Name of the bankName\r"
        },
        "return": "{uint8} flag if removal is succesful\r"
      },
      "removeCustomer(string)": {
        "params": {
          "": "{string} _userName Name of the customer\r"
        },
        "return": "{uint8} A 0 indicates failure, 1 indicates success\r"
      },
      "removeKYCRequest(string,string)": {
        "params": {
          "": "{string} _userName Name of the customer\r"
        },
        "return": "{uint8} A 0 indicates failure, 1 indicates success\r"
      },
      "setCustomerPassword(string,string)": {
        "params": {
          "": "{string} password password\r"
        }
      },
      "upVoteBank(address)": {
        "params": {
          "": "{address} bankAddress Address of the bank to be upvoted\r"
        }
      },
      "upvoteCustomer(string)": {
        "params": {
          "": "{string} _userName Name of the customer to be upvoted\r"
        }
      },
      "viewCustomer(string,string)": {
        "params": {
          "": "{string} _userName Name of the customer\r"
        },
        "return": "{Customer} The customer struct as an object\r"
      }
    }
  },
  "userdoc": {
    "methods": {
      "addBank(string,string,address)": {
        "notice": "Adds bank to banks mapping and bank's address to bankAddresses list\r"
      },
      "addCustomer(string,string)": {
        "notice": "Add a new customer\r"
      },
      "addKycRequest(string,string)": {
        "notice": "Record a new KYC request on behalf of a customer\r The sender of message call is the bank itself\r"
      },
      "getAccessHistory(string)": {
        "notice": "Get the last bank which validated the cutomer data\r"
      },
      "getBankDetails(address)": {
        "notice": "Get bank details as tuple\r"
      },
      "getBankRating(address)": {
        "notice": "Get bank's rating\r"
      },
      "getBankRequests(address)": {
        "notice": "Gets the list of each fields of kyc requests filtered for a bankAddress.\r"
      },
      "getCustomerRating(string)": {
        "notice": "Get customer's rating\r"
      },
      "modifyCustomer(string,string,string)": {
        "notice": "Edit customer information\r"
      },
      "modifyCustomerPassword(string,string,string)": {
        "notice": "Modify the password of the customer whos has an existing password\r"
      },
      "removeBank(address)": {
        "notice": "Removes bank from banks mapping and remove bank's address to bankAddresses list\r"
      },
      "removeCustomer(string)": {
        "notice": "Remove customer from customer mapping and remove customer name from customerNames\r"
      },
      "removeKYCRequest(string,string)": {
        "notice": "Remove KYC request from kycRequests mapping and remove kyc data hash from customerDataList\r"
      },
      "setCustomerPassword(string,string)": {
        "notice": "Set password to protect customer data\r"
      },
      "upVoteBank(address)": {
        "notice": "Add a new upvote from a bank to another bank. caller should be a bank.\r"
      },
      "upvoteCustomer(string)": {
        "notice": "Add a new upvote from a bank to a customer\r"
      },
      "viewCustomer(string,string)": {
        "notice": "View customer information\r"
      }
    },
    "notice": "Main container contract which inherits all handler contracts\r Logic is seperated out in to multiple contracts for readabilty and maintainability\r - Handler functions - Each of business entity functions are put in separate contracts - BankHandler, AdminHandler\r - Types - All custom types/struct are defined in the Types contract. Other contract will inherit Types if they need to use custom types.\r - DataStorage - All permanant storage varaibles are declared here. This contract can be shared between other contracts by inherting it.\r - AccessControl - All modifiers related to access, permission and authentication is defined here.\r - Helpers - Utiltites functions defined here\r"
  }
}